{
  "_format": "hh-sol-artifact-1",
  "contractName": "HeraCoinRewarder",
  "sourceName": "contracts/HeraCoinRewarder.sol",
  "abi": [
    {
      "inputs": [
        {
          "internalType": "contract IERC20",
          "name": "_heracoin",
          "type": "address"
        }
      ],
      "stateMutability": "nonpayable",
      "type": "constructor"
    },
    {
      "anonymous": false,
      "inputs": [
        {
          "indexed": true,
          "internalType": "address",
          "name": "previousOwner",
          "type": "address"
        },
        {
          "indexed": true,
          "internalType": "address",
          "name": "newOwner",
          "type": "address"
        }
      ],
      "name": "OwnershipTransferred",
      "type": "event"
    },
    {
      "anonymous": false,
      "inputs": [
        {
          "indexed": false,
          "internalType": "uint256",
          "name": "amount",
          "type": "uint256"
        },
        {
          "indexed": false,
          "internalType": "address",
          "name": "fromAccount",
          "type": "address"
        },
        {
          "indexed": false,
          "internalType": "address",
          "name": "toAccount",
          "type": "address"
        },
        {
          "indexed": false,
          "internalType": "uint256",
          "name": "totalBalance",
          "type": "uint256"
        }
      ],
      "name": "SentRewardTokens",
      "type": "event"
    },
    {
      "inputs": [],
      "name": "getHeraCoinBalance",
      "outputs": [
        {
          "internalType": "uint256",
          "name": "",
          "type": "uint256"
        }
      ],
      "stateMutability": "view",
      "type": "function"
    },
    {
      "inputs": [],
      "name": "getRewardAmount",
      "outputs": [
        {
          "internalType": "uint256",
          "name": "",
          "type": "uint256"
        }
      ],
      "stateMutability": "view",
      "type": "function"
    },
    {
      "inputs": [],
      "name": "owner",
      "outputs": [
        {
          "internalType": "address",
          "name": "",
          "type": "address"
        }
      ],
      "stateMutability": "view",
      "type": "function"
    },
    {
      "inputs": [],
      "name": "renounceOwnership",
      "outputs": [],
      "stateMutability": "nonpayable",
      "type": "function"
    },
    {
      "inputs": [],
      "name": "reward_amount",
      "outputs": [
        {
          "internalType": "uint256",
          "name": "",
          "type": "uint256"
        }
      ],
      "stateMutability": "view",
      "type": "function"
    },
    {
      "inputs": [
        {
          "internalType": "address",
          "name": "patient",
          "type": "address"
        }
      ],
      "name": "sendRewardForEmrCreation",
      "outputs": [],
      "stateMutability": "nonpayable",
      "type": "function"
    },
    {
      "inputs": [
        {
          "internalType": "uint256",
          "name": "reward",
          "type": "uint256"
        }
      ],
      "name": "setRewardAmount",
      "outputs": [
        {
          "internalType": "bool",
          "name": "",
          "type": "bool"
        }
      ],
      "stateMutability": "nonpayable",
      "type": "function"
    },
    {
      "inputs": [
        {
          "internalType": "address",
          "name": "newOwner",
          "type": "address"
        }
      ],
      "name": "transferOwnership",
      "outputs": [],
      "stateMutability": "nonpayable",
      "type": "function"
    }
  ],
  "bytecode": "0x6080604052655af3107a400060025534801561001a57600080fd5b50604051610be3380380610be3833981810160405281019061003c9190610180565b61005861004d61009f60201b60201c565b6100a760201b60201c565b80600160006101000a81548173ffffffffffffffffffffffffffffffffffffffff021916908373ffffffffffffffffffffffffffffffffffffffff1602179055505061020d565b600033905090565b60008060009054906101000a900473ffffffffffffffffffffffffffffffffffffffff169050816000806101000a81548173ffffffffffffffffffffffffffffffffffffffff021916908373ffffffffffffffffffffffffffffffffffffffff1602179055508173ffffffffffffffffffffffffffffffffffffffff168173ffffffffffffffffffffffffffffffffffffffff167f8be0079c531659141344cd1fd0a4f28419497f9722a3daafe3b4186f6b6457e060405160405180910390a35050565b60008151905061017a816101f6565b92915050565b600060208284031215610196576101956101f1565b5b60006101a48482850161016b565b91505092915050565b60006101b8826101d1565b9050919050565b60006101ca826101ad565b9050919050565b600073ffffffffffffffffffffffffffffffffffffffff82169050919050565b600080fd5b6101ff816101bf565b811461020a57600080fd5b50565b6109c78061021c6000396000f3fe608060405234801561001057600080fd5b50600436106100885760003560e01c80637874ede31161005b5780637874ede3146100f15780638da5cb5b1461010d578063a8a65a781461012b578063f2fde38b1461015b57610088565b806309a69f571461008d5780632381a60e146100ab578063582439ad146100c9578063715018a6146100e7575b600080fd5b610095610177565b6040516100a29190610816565b60405180910390f35b6100b3610181565b6040516100c09190610816565b60405180910390f35b6100d1610187565b6040516100de9190610816565b60405180910390f35b6100ef610239565b005b61010b60048036038101906101069190610650565b61024d565b005b6101156103eb565b6040516101229190610777565b60405180910390f35b610145600480360381019061014091906106aa565b610414565b60405161015291906107bb565b60405180910390f35b61017560048036038101906101709190610650565b61042e565b005b6000600254905090565b60025481565b6000600160009054906101000a900473ffffffffffffffffffffffffffffffffffffffff1673ffffffffffffffffffffffffffffffffffffffff166370a08231306040518263ffffffff1660e01b81526004016101e49190610777565b60206040518083038186803b1580156101fc57600080fd5b505afa158015610210573d6000803e3d6000fd5b505050506040513d601f19601f8201168201806040525081019061023491906106d7565b905090565b6102416104b2565b61024b6000610530565b565b600160009054906101000a900473ffffffffffffffffffffffffffffffffffffffff1673ffffffffffffffffffffffffffffffffffffffff1663a9059cbb826002546040518363ffffffff1660e01b81526004016102ac929190610792565b602060405180830381600087803b1580156102c657600080fd5b505af11580156102da573d6000803e3d6000fd5b505050506040513d601f19601f820116820180604052508101906102fe919061067d565b507f67fc435727c79101eeb3d6aa90277e03876ddc26d09a228ef67d959def4e81b26002543083600160009054906101000a900473ffffffffffffffffffffffffffffffffffffffff1673ffffffffffffffffffffffffffffffffffffffff166370a08231306040518263ffffffff1660e01b81526004016103809190610777565b60206040518083038186803b15801561039857600080fd5b505afa1580156103ac573d6000803e3d6000fd5b505050506040513d601f19601f820116820180604052508101906103d091906106d7565b6040516103e09493929190610831565b60405180910390a150565b60008060009054906101000a900473ffffffffffffffffffffffffffffffffffffffff16905090565b600061041e6104b2565b8160028190555060019050919050565b6104366104b2565b600073ffffffffffffffffffffffffffffffffffffffff168173ffffffffffffffffffffffffffffffffffffffff1614156104a6576040517f08c379a000000000000000000000000000000000000000000000000000000000815260040161049d906107d6565b60405180910390fd5b6104af81610530565b50565b6104ba6105f4565b73ffffffffffffffffffffffffffffffffffffffff166104d86103eb565b73ffffffffffffffffffffffffffffffffffffffff161461052e576040517f08c379a0000000000000000000000000000000000000000000000000000000008152600401610525906107f6565b60405180910390fd5b565b60008060009054906101000a900473ffffffffffffffffffffffffffffffffffffffff169050816000806101000a81548173ffffffffffffffffffffffffffffffffffffffff021916908373ffffffffffffffffffffffffffffffffffffffff1602179055508173ffffffffffffffffffffffffffffffffffffffff168173ffffffffffffffffffffffffffffffffffffffff167f8be0079c531659141344cd1fd0a4f28419497f9722a3daafe3b4186f6b6457e060405160405180910390a35050565b600033905090565b60008135905061060b8161094c565b92915050565b60008151905061062081610963565b92915050565b6000813590506106358161097a565b92915050565b60008151905061064a8161097a565b92915050565b600060208284031215610666576106656108cf565b5b6000610674848285016105fc565b91505092915050565b600060208284031215610693576106926108cf565b5b60006106a184828501610611565b91505092915050565b6000602082840312156106c0576106bf6108cf565b5b60006106ce84828501610626565b91505092915050565b6000602082840312156106ed576106ec6108cf565b5b60006106fb8482850161063b565b91505092915050565b61070d81610887565b82525050565b61071c81610899565b82525050565b600061072f602683610876565b915061073a826108d4565b604082019050919050565b6000610752602083610876565b915061075d82610923565b602082019050919050565b610771816108c5565b82525050565b600060208201905061078c6000830184610704565b92915050565b60006040820190506107a76000830185610704565b6107b46020830184610768565b9392505050565b60006020820190506107d06000830184610713565b92915050565b600060208201905081810360008301526107ef81610722565b9050919050565b6000602082019050818103600083015261080f81610745565b9050919050565b600060208201905061082b6000830184610768565b92915050565b60006080820190506108466000830187610768565b6108536020830186610704565b6108606040830185610704565b61086d6060830184610768565b95945050505050565b600082825260208201905092915050565b6000610892826108a5565b9050919050565b60008115159050919050565b600073ffffffffffffffffffffffffffffffffffffffff82169050919050565b6000819050919050565b600080fd5b7f4f776e61626c653a206e6577206f776e657220697320746865207a65726f206160008201527f6464726573730000000000000000000000000000000000000000000000000000602082015250565b7f4f776e61626c653a2063616c6c6572206973206e6f7420746865206f776e6572600082015250565b61095581610887565b811461096057600080fd5b50565b61096c81610899565b811461097757600080fd5b50565b610983816108c5565b811461098e57600080fd5b5056fea2646970667358221220cf996f63fa76e754efe037b2bf5002beb0ecc00c6c71c007c9674ee73d4068a564736f6c63430008070033",
  "linkReferences": {},
  "deployedLinkReferences": {}
}