{
  "_format": "hh-sol-artifact-1",
  "contractName": "AccountAdministrator",
  "sourceName": "contracts/AccountAdministrator.sol",
  "abi": [
    {
      "anonymous": false,
      "inputs": [
        {
          "indexed": true,
          "internalType": "address",
          "name": "previousOwner",
          "type": "address"
        },
        {
          "indexed": true,
          "internalType": "address",
          "name": "newOwner",
          "type": "address"
        }
      ],
      "name": "OwnershipTransferred",
      "type": "event"
    },
    {
      "inputs": [
        {
          "internalType": "address",
          "name": "a",
          "type": "address"
        }
      ],
      "name": "getUserFromAddress",
      "outputs": [
        {
          "internalType": "bytes32",
          "name": "",
          "type": "bytes32"
        }
      ],
      "stateMutability": "nonpayable",
      "type": "function"
    },
    {
      "inputs": [
        {
          "internalType": "address",
          "name": "a",
          "type": "address"
        },
        {
          "internalType": "bytes32",
          "name": "_userhash",
          "type": "bytes32"
        }
      ],
      "name": "mapNewAddress",
      "outputs": [],
      "stateMutability": "nonpayable",
      "type": "function"
    },
    {
      "inputs": [],
      "name": "owner",
      "outputs": [
        {
          "internalType": "address",
          "name": "",
          "type": "address"
        }
      ],
      "stateMutability": "view",
      "type": "function"
    },
    {
      "inputs": [
        {
          "internalType": "address",
          "name": "a",
          "type": "address"
        }
      ],
      "name": "removeUserFromAddress",
      "outputs": [],
      "stateMutability": "nonpayable",
      "type": "function"
    },
    {
      "inputs": [],
      "name": "renounceOwnership",
      "outputs": [],
      "stateMutability": "nonpayable",
      "type": "function"
    },
    {
      "inputs": [
        {
          "internalType": "address",
          "name": "newOwner",
          "type": "address"
        }
      ],
      "name": "transferOwnership",
      "outputs": [],
      "stateMutability": "nonpayable",
      "type": "function"
    }
  ],
  "bytecode": "0x608060405234801561001057600080fd5b5061002d61002261003260201b60201c565b61003a60201b60201c565b6100fe565b600033905090565b60008060009054906101000a900473ffffffffffffffffffffffffffffffffffffffff169050816000806101000a81548173ffffffffffffffffffffffffffffffffffffffff021916908373ffffffffffffffffffffffffffffffffffffffff1602179055508173ffffffffffffffffffffffffffffffffffffffff168173ffffffffffffffffffffffffffffffffffffffff167f8be0079c531659141344cd1fd0a4f28419497f9722a3daafe3b4186f6b6457e060405160405180910390a35050565b6108658061010d6000396000f3fe608060405234801561001057600080fd5b50600436106100625760003560e01c80631d5410b1146100675780633ec4736c14610083578063715018a61461009f5780638da5cb5b146100a9578063e14f50d4146100c7578063f2fde38b146100f7575b600080fd5b610081600480360381019061007c9190610626565b610113565b005b61009d600480360381019061009891906105fd565b6101d7565b005b6100a7610299565b005b6100b1610321565b6040516100be91906106c6565b60405180910390f35b6100e160048036038101906100dc91906105fd565b61034a565b6040516100ee91906106e1565b60405180910390f35b610111600480360381019061010c91906105fd565b61040f565b005b61011b610507565b73ffffffffffffffffffffffffffffffffffffffff16610139610321565b73ffffffffffffffffffffffffffffffffffffffff161461018f576040517f08c379a00000000000000000000000000000000000000000000000000000000081526004016101869061071c565b60405180910390fd5b80600160008473ffffffffffffffffffffffffffffffffffffffff1673ffffffffffffffffffffffffffffffffffffffff168152602001908152602001600020819055505050565b6101df610507565b73ffffffffffffffffffffffffffffffffffffffff166101fd610321565b73ffffffffffffffffffffffffffffffffffffffff1614610253576040517f08c379a000000000000000000000000000000000000000000000000000000000815260040161024a9061071c565b60405180910390fd5b600160008273ffffffffffffffffffffffffffffffffffffffff1673ffffffffffffffffffffffffffffffffffffffff1681526020019081526020016000206000905550565b6102a1610507565b73ffffffffffffffffffffffffffffffffffffffff166102bf610321565b73ffffffffffffffffffffffffffffffffffffffff1614610315576040517f08c379a000000000000000000000000000000000000000000000000000000000815260040161030c9061071c565b60405180910390fd5b61031f600061050f565b565b60008060009054906101000a900473ffffffffffffffffffffffffffffffffffffffff16905090565b6000610354610507565b73ffffffffffffffffffffffffffffffffffffffff16610372610321565b73ffffffffffffffffffffffffffffffffffffffff16146103c8576040517f08c379a00000000000000000000000000000000000000000000000000000000081526004016103bf9061071c565b60405180910390fd5b600160008373ffffffffffffffffffffffffffffffffffffffff1673ffffffffffffffffffffffffffffffffffffffff168152602001908152602001600020549050919050565b610417610507565b73ffffffffffffffffffffffffffffffffffffffff16610435610321565b73ffffffffffffffffffffffffffffffffffffffff161461048b576040517f08c379a00000000000000000000000000000000000000000000000000000000081526004016104829061071c565b60405180910390fd5b600073ffffffffffffffffffffffffffffffffffffffff168173ffffffffffffffffffffffffffffffffffffffff1614156104fb576040517f08c379a00000000000000000000000000000000000000000000000000000000081526004016104f2906106fc565b60405180910390fd5b6105048161050f565b50565b600033905090565b60008060009054906101000a900473ffffffffffffffffffffffffffffffffffffffff169050816000806101000a81548173ffffffffffffffffffffffffffffffffffffffff021916908373ffffffffffffffffffffffffffffffffffffffff1602179055508173ffffffffffffffffffffffffffffffffffffffff168173ffffffffffffffffffffffffffffffffffffffff167f8be0079c531659141344cd1fd0a4f28419497f9722a3daafe3b4186f6b6457e060405160405180910390a35050565b6000813590506105e281610801565b92915050565b6000813590506105f781610818565b92915050565b60006020828403121561060f57600080fd5b600061061d848285016105d3565b91505092915050565b6000806040838503121561063957600080fd5b6000610647858286016105d3565b9250506020610658858286016105e8565b9150509250929050565b61066b8161074d565b82525050565b61067a8161075f565b82525050565b600061068d60268361073c565b915061069882610789565b604082019050919050565b60006106b060208361073c565b91506106bb826107d8565b602082019050919050565b60006020820190506106db6000830184610662565b92915050565b60006020820190506106f66000830184610671565b92915050565b6000602082019050818103600083015261071581610680565b9050919050565b60006020820190508181036000830152610735816106a3565b9050919050565b600082825260208201905092915050565b600061075882610769565b9050919050565b6000819050919050565b600073ffffffffffffffffffffffffffffffffffffffff82169050919050565b7f4f776e61626c653a206e6577206f776e657220697320746865207a65726f206160008201527f6464726573730000000000000000000000000000000000000000000000000000602082015250565b7f4f776e61626c653a2063616c6c6572206973206e6f7420746865206f776e6572600082015250565b61080a8161074d565b811461081557600080fd5b50565b6108218161075f565b811461082c57600080fd5b5056fea26469706673582212200ee2697f25f82a3509958c63452aac73222975c9c949ac975467c4cb762f822f64736f6c63430008040033",
  "linkReferences": {},
  "deployedLinkReferences": {}
}