{
  "_format": "hh-sol-artifact-1",
  "contractName": "EMRDatabase",
  "sourceName": "contracts/EMRDatabase.sol",
  "abi": [
    {
      "inputs": [
        {
          "internalType": "contract HeraCoinRewarder",
          "name": "_rewarder",
          "type": "address"
        }
      ],
      "stateMutability": "nonpayable",
      "type": "constructor"
    },
    {
      "anonymous": false,
      "inputs": [
        {
          "indexed": false,
          "internalType": "address",
          "name": "accesor",
          "type": "address"
        },
        {
          "indexed": false,
          "internalType": "uint256",
          "name": "emr",
          "type": "uint256"
        }
      ],
      "name": "EMRAccessed",
      "type": "event"
    },
    {
      "anonymous": false,
      "inputs": [
        {
          "indexed": false,
          "internalType": "address",
          "name": "patient",
          "type": "address"
        },
        {
          "indexed": false,
          "internalType": "uint256",
          "name": "emr",
          "type": "uint256"
        }
      ],
      "name": "EMRCreated",
      "type": "event"
    },
    {
      "anonymous": false,
      "inputs": [
        {
          "indexed": false,
          "internalType": "uint256",
          "name": "amount",
          "type": "uint256"
        },
        {
          "indexed": false,
          "internalType": "address",
          "name": "fromAccount",
          "type": "address"
        },
        {
          "indexed": false,
          "internalType": "address",
          "name": "toAccount",
          "type": "address"
        },
        {
          "indexed": false,
          "internalType": "uint256",
          "name": "totalBalance",
          "type": "uint256"
        }
      ],
      "name": "SentRewardTokens",
      "type": "event"
    },
    {
      "inputs": [
        {
          "internalType": "string",
          "name": "_record_type",
          "type": "string"
        },
        {
          "internalType": "string",
          "name": "_record_status",
          "type": "string"
        },
        {
          "internalType": "uint256",
          "name": "_record_date",
          "type": "uint256"
        },
        {
          "internalType": "string",
          "name": "_ipfs_image_hash",
          "type": "string"
        },
        {
          "internalType": "string",
          "name": "_ipfs_data_hash",
          "type": "string"
        }
      ],
      "name": "createEMR",
      "outputs": [
        {
          "internalType": "bool",
          "name": "",
          "type": "bool"
        }
      ],
      "stateMutability": "nonpayable",
      "type": "function"
    },
    {
      "inputs": [
        {
          "internalType": "uint256",
          "name": "_id",
          "type": "uint256"
        }
      ],
      "name": "getDataIPFSHash",
      "outputs": [
        {
          "internalType": "string",
          "name": "",
          "type": "string"
        }
      ],
      "stateMutability": "view",
      "type": "function"
    },
    {
      "inputs": [
        {
          "internalType": "uint256",
          "name": "_id",
          "type": "uint256"
        }
      ],
      "name": "getEMRById",
      "outputs": [
        {
          "components": [
            {
              "internalType": "uint256",
              "name": "id",
              "type": "uint256"
            },
            {
              "internalType": "address",
              "name": "owner",
              "type": "address"
            },
            {
              "internalType": "string",
              "name": "record_type",
              "type": "string"
            },
            {
              "internalType": "string",
              "name": "record_status",
              "type": "string"
            },
            {
              "internalType": "uint256",
              "name": "record_date",
              "type": "uint256"
            },
            {
              "internalType": "uint256",
              "name": "publish_date",
              "type": "uint256"
            },
            {
              "internalType": "string",
              "name": "ipfs_image_hash",
              "type": "string"
            },
            {
              "internalType": "string",
              "name": "ipfs_data_hash",
              "type": "string"
            }
          ],
          "internalType": "struct EMRDatabase.EMR",
          "name": "",
          "type": "tuple"
        }
      ],
      "stateMutability": "view",
      "type": "function"
    },
    {
      "inputs": [
        {
          "components": [
            {
              "internalType": "uint256",
              "name": "id",
              "type": "uint256"
            },
            {
              "internalType": "address",
              "name": "owner",
              "type": "address"
            },
            {
              "internalType": "string",
              "name": "record_type",
              "type": "string"
            },
            {
              "internalType": "string",
              "name": "record_status",
              "type": "string"
            },
            {
              "internalType": "uint256",
              "name": "record_date",
              "type": "uint256"
            },
            {
              "internalType": "uint256",
              "name": "publish_date",
              "type": "uint256"
            },
            {
              "internalType": "string",
              "name": "ipfs_image_hash",
              "type": "string"
            },
            {
              "internalType": "string",
              "name": "ipfs_data_hash",
              "type": "string"
            }
          ],
          "internalType": "struct EMRDatabase.EMR",
          "name": "emr",
          "type": "tuple"
        }
      ],
      "name": "getEMRHashes",
      "outputs": [
        {
          "internalType": "string",
          "name": "",
          "type": "string"
        },
        {
          "internalType": "string",
          "name": "",
          "type": "string"
        }
      ],
      "stateMutability": "view",
      "type": "function"
    },
    {
      "inputs": [
        {
          "internalType": "uint256",
          "name": "_id",
          "type": "uint256"
        }
      ],
      "name": "getImageIPFSHash",
      "outputs": [
        {
          "internalType": "string",
          "name": "",
          "type": "string"
        }
      ],
      "stateMutability": "view",
      "type": "function"
    },
    {
      "inputs": [],
      "name": "getNumberOwnedEMRs",
      "outputs": [
        {
          "internalType": "uint256",
          "name": "count",
          "type": "uint256"
        }
      ],
      "stateMutability": "view",
      "type": "function"
    },
    {
      "inputs": [],
      "name": "getOwnedEMRsArray",
      "outputs": [
        {
          "internalType": "uint256[]",
          "name": "",
          "type": "uint256[]"
        }
      ],
      "stateMutability": "view",
      "type": "function"
    },
    {
      "inputs": [
        {
          "internalType": "uint256",
          "name": "_id",
          "type": "uint256"
        }
      ],
      "name": "getPublishDate",
      "outputs": [
        {
          "internalType": "uint256",
          "name": "",
          "type": "uint256"
        }
      ],
      "stateMutability": "view",
      "type": "function"
    },
    {
      "inputs": [
        {
          "internalType": "uint256",
          "name": "_id",
          "type": "uint256"
        }
      ],
      "name": "getRecordDate",
      "outputs": [
        {
          "internalType": "uint256",
          "name": "",
          "type": "uint256"
        }
      ],
      "stateMutability": "view",
      "type": "function"
    },
    {
      "inputs": [
        {
          "internalType": "uint256",
          "name": "_id",
          "type": "uint256"
        }
      ],
      "name": "getRecordStatus",
      "outputs": [
        {
          "internalType": "string",
          "name": "",
          "type": "string"
        }
      ],
      "stateMutability": "view",
      "type": "function"
    },
    {
      "inputs": [
        {
          "internalType": "uint256",
          "name": "_id",
          "type": "uint256"
        }
      ],
      "name": "getRecordType",
      "outputs": [
        {
          "internalType": "string",
          "name": "",
          "type": "string"
        }
      ],
      "stateMutability": "view",
      "type": "function"
    }
  ],
  "bytecode": "0x60806040523480156200001157600080fd5b506040516200291738038062002917833981810160405281019062000037919062000095565b806000806101000a81548173ffffffffffffffffffffffffffffffffffffffff021916908373ffffffffffffffffffffffffffffffffffffffff1602179055505062000123565b6000815190506200008f8162000109565b92915050565b600060208284031215620000a857600080fd5b6000620000b8848285016200007e565b91505092915050565b6000620000ce82620000e9565b9050919050565b6000620000e282620000c1565b9050919050565b600073ffffffffffffffffffffffffffffffffffffffff82169050919050565b6200011481620000d5565b81146200012057600080fd5b50565b6127e480620001336000396000f3fe608060405234801561001057600080fd5b50600436106100a95760003560e01c80639ffac04f116100715780639ffac04f1461017a578063b728a69c146101ab578063b7701f3c146101db578063bd4695961461020b578063cf562b401461023b578063cfdee9611461026b576100a9565b80630b156d8c146100ae57806314e0e5dc146100de5780631cd71218146100fc57806335b7f7c31461012c578063933d23361461014a575b600080fd5b6100c860048036038101906100c3919061216d565b61029b565b6040516100d591906124cd565b60405180910390f35b6100e66105fa565b6040516100f391906124cd565b60405180910390f35b6101166004803603810190610111919061216d565b610644565b60405161012391906124cd565b60405180910390f35b6101346109a3565b60405161014191906123f5565b60405180910390f35b610164600480360381019061015f919061216d565b610a38565b6040516101719190612432565b60405180910390f35b610194600480360381019061018f919061212c565b610d98565b6040516101a2929190612454565b60405180910390f35b6101c560048036038101906101c09190612055565b610ea6565b6040516101d29190612417565b60405180910390f35b6101f560048036038101906101f0919061216d565b6110da565b60405161020291906124ab565b60405180910390f35b6102256004803603810190610220919061216d565b61143c565b6040516102329190612432565b60405180910390f35b6102556004803603810190610250919061216d565b61179c565b6040516102629190612432565b60405180910390f35b6102856004803603810190610280919061216d565b611afc565b6040516102929190612432565b60405180910390f35b6000806002600084815260200190815260200160002060405180610100016040529081600082015481526020016001820160009054906101000a900473ffffffffffffffffffffffffffffffffffffffff1673ffffffffffffffffffffffffffffffffffffffff1673ffffffffffffffffffffffffffffffffffffffff16815260200160028201805461032d90612685565b80601f016020809104026020016040519081016040528092919081815260200182805461035990612685565b80156103a65780601f1061037b576101008083540402835291602001916103a6565b820191906000526020600020905b81548152906001019060200180831161038957829003601f168201915b505050505081526020016003820180546103bf90612685565b80601f01602080910402602001604051908101604052809291908181526020018280546103eb90612685565b80156104385780601f1061040d57610100808354040283529160200191610438565b820191906000526020600020905b81548152906001019060200180831161041b57829003601f168201915b50505050508152602001600482015481526020016005820154815260200160068201805461046590612685565b80601f016020809104026020016040519081016040528092919081815260200182805461049190612685565b80156104de5780601f106104b3576101008083540402835291602001916104de565b820191906000526020600020905b8154815290600101906020018083116104c157829003601f168201915b505050505081526020016007820180546104f790612685565b80601f016020809104026020016040519081016040528092919081815260200182805461052390612685565b80156105705780601f1061054557610100808354040283529160200191610570565b820191906000526020600020905b81548152906001019060200180831161055357829003601f168201915b5050505050815250509050806020015173ffffffffffffffffffffffffffffffffffffffff163373ffffffffffffffffffffffffffffffffffffffff16146105ed576040517f08c379a00000000000000000000000000000000000000000000000000000000081526004016105e49061248b565b60405180910390fd5b8060a00151915050919050565b6000600360003373ffffffffffffffffffffffffffffffffffffffff1673ffffffffffffffffffffffffffffffffffffffff16815260200190815260200160002080549050905090565b6000806002600084815260200190815260200160002060405180610100016040529081600082015481526020016001820160009054906101000a900473ffffffffffffffffffffffffffffffffffffffff1673ffffffffffffffffffffffffffffffffffffffff1673ffffffffffffffffffffffffffffffffffffffff1681526020016002820180546106d690612685565b80601f016020809104026020016040519081016040528092919081815260200182805461070290612685565b801561074f5780601f106107245761010080835404028352916020019161074f565b820191906000526020600020905b81548152906001019060200180831161073257829003601f168201915b5050505050815260200160038201805461076890612685565b80601f016020809104026020016040519081016040528092919081815260200182805461079490612685565b80156107e15780601f106107b6576101008083540402835291602001916107e1565b820191906000526020600020905b8154815290600101906020018083116107c457829003601f168201915b50505050508152602001600482015481526020016005820154815260200160068201805461080e90612685565b80601f016020809104026020016040519081016040528092919081815260200182805461083a90612685565b80156108875780601f1061085c57610100808354040283529160200191610887565b820191906000526020600020905b81548152906001019060200180831161086a57829003601f168201915b505050505081526020016007820180546108a090612685565b80601f01602080910402602001604051908101604052809291908181526020018280546108cc90612685565b80156109195780601f106108ee57610100808354040283529160200191610919565b820191906000526020600020905b8154815290600101906020018083116108fc57829003601f168201915b5050505050815250509050806020015173ffffffffffffffffffffffffffffffffffffffff163373ffffffffffffffffffffffffffffffffffffffff1614610996576040517f08c379a000000000000000000000000000000000000000000000000000000000815260040161098d9061248b565b60405180910390fd5b8060800151915050919050565b6060600360003373ffffffffffffffffffffffffffffffffffffffff1673ffffffffffffffffffffffffffffffffffffffff168152602001908152602001600020805480602002602001604051908101604052809291908181526020018280548015610a2e57602002820191906000526020600020905b815481526020019060010190808311610a1a575b5050505050905090565b606060006002600084815260200190815260200160002060405180610100016040529081600082015481526020016001820160009054906101000a900473ffffffffffffffffffffffffffffffffffffffff1673ffffffffffffffffffffffffffffffffffffffff1673ffffffffffffffffffffffffffffffffffffffff168152602001600282018054610acb90612685565b80601f0160208091040260200160405190810160405280929190818152602001828054610af790612685565b8015610b445780601f10610b1957610100808354040283529160200191610b44565b820191906000526020600020905b815481529060010190602001808311610b2757829003601f168201915b50505050508152602001600382018054610b5d90612685565b80601f0160208091040260200160405190810160405280929190818152602001828054610b8990612685565b8015610bd65780601f10610bab57610100808354040283529160200191610bd6565b820191906000526020600020905b815481529060010190602001808311610bb957829003601f168201915b505050505081526020016004820154815260200160058201548152602001600682018054610c0390612685565b80601f0160208091040260200160405190810160405280929190818152602001828054610c2f90612685565b8015610c7c5780601f10610c5157610100808354040283529160200191610c7c565b820191906000526020600020905b815481529060010190602001808311610c5f57829003601f168201915b50505050508152602001600782018054610c9590612685565b80601f0160208091040260200160405190810160405280929190818152602001828054610cc190612685565b8015610d0e5780601f10610ce357610100808354040283529160200191610d0e565b820191906000526020600020905b815481529060010190602001808311610cf157829003601f168201915b5050505050815250509050806020015173ffffffffffffffffffffffffffffffffffffffff163373ffffffffffffffffffffffffffffffffffffffff1614610d8b576040517f08c379a0000000000000000000000000000000000000000000000000000000008152600401610d829061248b565b60405180910390fd5b8060400151915050919050565b60608033838173ffffffffffffffffffffffffffffffffffffffff16816020016020810190610dc7919061202c565b73ffffffffffffffffffffffffffffffffffffffff1614610de757600080fd5b848060c00190610df791906124e8565b868060e00190610e0791906124e8565b83838080601f016020809104026020016040519081016040528093929190818152602001838380828437600081840152601f19601f8201169050808301925050505050505092509091925081818080601f016020809104026020016040519081016040528093929190818152602001838380828437600081840152601f19601f8201169050808301925050505050505090509050935093505050915091565b6000610eb26001611e5c565b6000610ebe6001611e72565b90506000600260008381526020019081526020016000209050818160000181905550338160010160006101000a81548173ffffffffffffffffffffffffffffffffffffffff021916908373ffffffffffffffffffffffffffffffffffffffff16021790555086816003019080519060200190610f3b929190611e80565b5085816004018190555042816005018190555087816002019080519060200190610f66929190611e80565b5084816006019080519060200190610f7f929190611e80565b5083816007019080519060200190610f98929190611e80565b50600360003373ffffffffffffffffffffffffffffffffffffffff1673ffffffffffffffffffffffffffffffffffffffff168152602001908152602001600020816000015490806001815401808255809150506001900390600052602060002001600090919091909150557f4a079f8e24d76cc87365fc1d54b8c2d56689f1d9cfb29b70413f24c53857c8973382600001546040516110389291906123cc565b60405180910390a160008054906101000a900473ffffffffffffffffffffffffffffffffffffffff1673ffffffffffffffffffffffffffffffffffffffff16637874ede3336040518263ffffffff1660e01b815260040161109991906123b1565b600060405180830381600087803b1580156110b357600080fd5b505af11580156110c7573d6000803e3d6000fd5b5050505060019250505095945050505050565b6110e2611f06565b60006002600084815260200190815260200160002060405180610100016040529081600082015481526020016001820160009054906101000a900473ffffffffffffffffffffffffffffffffffffffff1673ffffffffffffffffffffffffffffffffffffffff1673ffffffffffffffffffffffffffffffffffffffff16815260200160028201805461117390612685565b80601f016020809104026020016040519081016040528092919081815260200182805461119f90612685565b80156111ec5780601f106111c1576101008083540402835291602001916111ec565b820191906000526020600020905b8154815290600101906020018083116111cf57829003601f168201915b5050505050815260200160038201805461120590612685565b80601f016020809104026020016040519081016040528092919081815260200182805461123190612685565b801561127e5780601f106112535761010080835404028352916020019161127e565b820191906000526020600020905b81548152906001019060200180831161126157829003601f168201915b5050505050815260200160048201548152602001600582015481526020016006820180546112ab90612685565b80601f01602080910402602001604051908101604052809291908181526020018280546112d790612685565b80156113245780601f106112f957610100808354040283529160200191611324565b820191906000526020600020905b81548152906001019060200180831161130757829003601f168201915b5050505050815260200160078201805461133d90612685565b80601f016020809104026020016040519081016040528092919081815260200182805461136990612685565b80156113b65780601f1061138b576101008083540402835291602001916113b6565b820191906000526020600020905b81548152906001019060200180831161139957829003601f168201915b5050505050815250509050806020015173ffffffffffffffffffffffffffffffffffffffff163373ffffffffffffffffffffffffffffffffffffffff1614611433576040517f08c379a000000000000000000000000000000000000000000000000000000000815260040161142a9061248b565b60405180910390fd5b80915050919050565b606060006002600084815260200190815260200160002060405180610100016040529081600082015481526020016001820160009054906101000a900473ffffffffffffffffffffffffffffffffffffffff1673ffffffffffffffffffffffffffffffffffffffff1673ffffffffffffffffffffffffffffffffffffffff1681526020016002820180546114cf90612685565b80601f01602080910402602001604051908101604052809291908181526020018280546114fb90612685565b80156115485780601f1061151d57610100808354040283529160200191611548565b820191906000526020600020905b81548152906001019060200180831161152b57829003601f168201915b5050505050815260200160038201805461156190612685565b80601f016020809104026020016040519081016040528092919081815260200182805461158d90612685565b80156115da5780601f106115af576101008083540402835291602001916115da565b820191906000526020600020905b8154815290600101906020018083116115bd57829003601f168201915b50505050508152602001600482015481526020016005820154815260200160068201805461160790612685565b80601f016020809104026020016040519081016040528092919081815260200182805461163390612685565b80156116805780601f1061165557610100808354040283529160200191611680565b820191906000526020600020905b81548152906001019060200180831161166357829003601f168201915b5050505050815260200160078201805461169990612685565b80601f01602080910402602001604051908101604052809291908181526020018280546116c590612685565b80156117125780601f106116e757610100808354040283529160200191611712565b820191906000526020600020905b8154815290600101906020018083116116f557829003601f168201915b5050505050815250509050806020015173ffffffffffffffffffffffffffffffffffffffff163373ffffffffffffffffffffffffffffffffffffffff161461178f576040517f08c379a00000000000000000000000000000000000000000000000000000000081526004016117869061248b565b60405180910390fd5b8060c00151915050919050565b606060006002600084815260200190815260200160002060405180610100016040529081600082015481526020016001820160009054906101000a900473ffffffffffffffffffffffffffffffffffffffff1673ffffffffffffffffffffffffffffffffffffffff1673ffffffffffffffffffffffffffffffffffffffff16815260200160028201805461182f90612685565b80601f016020809104026020016040519081016040528092919081815260200182805461185b90612685565b80156118a85780601f1061187d576101008083540402835291602001916118a8565b820191906000526020600020905b81548152906001019060200180831161188b57829003601f168201915b505050505081526020016003820180546118c190612685565b80601f01602080910402602001604051908101604052809291908181526020018280546118ed90612685565b801561193a5780601f1061190f5761010080835404028352916020019161193a565b820191906000526020600020905b81548152906001019060200180831161191d57829003601f168201915b50505050508152602001600482015481526020016005820154815260200160068201805461196790612685565b80601f016020809104026020016040519081016040528092919081815260200182805461199390612685565b80156119e05780601f106119b5576101008083540402835291602001916119e0565b820191906000526020600020905b8154815290600101906020018083116119c357829003601f168201915b505050505081526020016007820180546119f990612685565b80601f0160208091040260200160405190810160405280929190818152602001828054611a2590612685565b8015611a725780601f10611a4757610100808354040283529160200191611a72565b820191906000526020600020905b815481529060010190602001808311611a5557829003601f168201915b5050505050815250509050806020015173ffffffffffffffffffffffffffffffffffffffff163373ffffffffffffffffffffffffffffffffffffffff1614611aef576040517f08c379a0000000000000000000000000000000000000000000000000000000008152600401611ae69061248b565b60405180910390fd5b8060e00151915050919050565b606060006002600084815260200190815260200160002060405180610100016040529081600082015481526020016001820160009054906101000a900473ffffffffffffffffffffffffffffffffffffffff1673ffffffffffffffffffffffffffffffffffffffff1673ffffffffffffffffffffffffffffffffffffffff168152602001600282018054611b8f90612685565b80601f0160208091040260200160405190810160405280929190818152602001828054611bbb90612685565b8015611c085780601f10611bdd57610100808354040283529160200191611c08565b820191906000526020600020905b815481529060010190602001808311611beb57829003601f168201915b50505050508152602001600382018054611c2190612685565b80601f0160208091040260200160405190810160405280929190818152602001828054611c4d90612685565b8015611c9a5780601f10611c6f57610100808354040283529160200191611c9a565b820191906000526020600020905b815481529060010190602001808311611c7d57829003601f168201915b505050505081526020016004820154815260200160058201548152602001600682018054611cc790612685565b80601f0160208091040260200160405190810160405280929190818152602001828054611cf390612685565b8015611d405780601f10611d1557610100808354040283529160200191611d40565b820191906000526020600020905b815481529060010190602001808311611d2357829003601f168201915b50505050508152602001600782018054611d5990612685565b80601f0160208091040260200160405190810160405280929190818152602001828054611d8590612685565b8015611dd25780601f10611da757610100808354040283529160200191611dd2565b820191906000526020600020905b815481529060010190602001808311611db557829003601f168201915b5050505050815250509050806020015173ffffffffffffffffffffffffffffffffffffffff163373ffffffffffffffffffffffffffffffffffffffff1614611e4f576040517f08c379a0000000000000000000000000000000000000000000000000000000008152600401611e469061248b565b60405180910390fd5b8060600151915050919050565b6001816000016000828254019250508190555050565b600081600001549050919050565b828054611e8c90612685565b90600052602060002090601f016020900481019282611eae5760008555611ef5565b82601f10611ec757805160ff1916838001178555611ef5565b82800160010185558215611ef5579182015b82811115611ef4578251825591602001919060010190611ed9565b5b509050611f029190611f61565b5090565b60405180610100016040528060008152602001600073ffffffffffffffffffffffffffffffffffffffff1681526020016060815260200160608152602001600081526020016000815260200160608152602001606081525090565b5b80821115611f7a576000816000905550600101611f62565b5090565b6000611f91611f8c84612564565b61253f565b905082815260208101848484011115611fa957600080fd5b611fb4848285612643565b509392505050565b600081359050611fcb81612780565b92915050565b600082601f830112611fe257600080fd5b8135611ff2848260208601611f7e565b91505092915050565b6000610100828403121561200e57600080fd5b81905092915050565b60008135905061202681612797565b92915050565b60006020828403121561203e57600080fd5b600061204c84828501611fbc565b91505092915050565b600080600080600060a0868803121561206d57600080fd5b600086013567ffffffffffffffff81111561208757600080fd5b61209388828901611fd1565b955050602086013567ffffffffffffffff8111156120b057600080fd5b6120bc88828901611fd1565b94505060406120cd88828901612017565b935050606086013567ffffffffffffffff8111156120ea57600080fd5b6120f688828901611fd1565b925050608086013567ffffffffffffffff81111561211357600080fd5b61211f88828901611fd1565b9150509295509295909350565b60006020828403121561213e57600080fd5b600082013567ffffffffffffffff81111561215857600080fd5b61216484828501611ffb565b91505092915050565b60006020828403121561217f57600080fd5b600061218d84828501612017565b91505092915050565b60006121a28383612393565b60208301905092915050565b6121b7816125fb565b82525050565b6121c6816125fb565b82525050565b60006121d7826125a5565b6121e181856125c8565b93506121ec83612595565b8060005b8381101561221d5781516122048882612196565b975061220f836125bb565b9250506001810190506121f0565b5085935050505092915050565b6122338161260d565b82525050565b6000612244826125b0565b61224e81856125d9565b935061225e818560208601612652565b61226781612746565b840191505092915050565b600061227d826125b0565b61228781856125ea565b9350612297818560208601612652565b6122a081612746565b840191505092915050565b60006122b86019836125ea565b91506122c382612757565b602082019050919050565b6000610100830160008301516122e76000860182612393565b5060208301516122fa60208601826121ae565b50604083015184820360408601526123128282612239565b9150506060830151848203606086015261232c8282612239565b91505060808301516123416080860182612393565b5060a083015161235460a0860182612393565b5060c083015184820360c086015261236c8282612239565b91505060e083015184820360e08601526123868282612239565b9150508091505092915050565b61239c81612639565b82525050565b6123ab81612639565b82525050565b60006020820190506123c660008301846121bd565b92915050565b60006040820190506123e160008301856121bd565b6123ee60208301846123a2565b9392505050565b6000602082019050818103600083015261240f81846121cc565b905092915050565b600060208201905061242c600083018461222a565b92915050565b6000602082019050818103600083015261244c8184612272565b905092915050565b6000604082019050818103600083015261246e8185612272565b905081810360208301526124828184612272565b90509392505050565b600060208201905081810360008301526124a4816122ab565b9050919050565b600060208201905081810360008301526124c581846122ce565b905092915050565b60006020820190506124e260008301846123a2565b92915050565b6000808335600160200384360303811261250157600080fd5b80840192508235915067ffffffffffffffff82111561251f57600080fd5b60208301925060018202360383131561253757600080fd5b509250929050565b600061254961255a565b905061255582826126b7565b919050565b6000604051905090565b600067ffffffffffffffff82111561257f5761257e612717565b5b61258882612746565b9050602081019050919050565b6000819050602082019050919050565b600081519050919050565b600081519050919050565b6000602082019050919050565b600082825260208201905092915050565b600082825260208201905092915050565b600082825260208201905092915050565b600061260682612619565b9050919050565b60008115159050919050565b600073ffffffffffffffffffffffffffffffffffffffff82169050919050565b6000819050919050565b82818337600083830152505050565b60005b83811015612670578082015181840152602081019050612655565b8381111561267f576000848401525b50505050565b6000600282049050600182168061269d57607f821691505b602082108114156126b1576126b06126e8565b5b50919050565b6126c082612746565b810181811067ffffffffffffffff821117156126df576126de612717565b5b80604052505050565b7f4e487b7100000000000000000000000000000000000000000000000000000000600052602260045260246000fd5b7f4e487b7100000000000000000000000000000000000000000000000000000000600052604160045260246000fd5b6000601f19601f8301169050919050565b7f4f6e6c79206f776e65722063616e2063616c6c20746869732e00000000000000600082015250565b612789816125fb565b811461279457600080fd5b50565b6127a081612639565b81146127ab57600080fd5b5056fea26469706673582212206b78e187986adc1cb72a8de8dad6683854c72ee27a23e3c98f9d138528e97ea064736f6c63430008040033",
  "linkReferences": {},
  "deployedLinkReferences": {}
}