{
  "_format": "hh-sol-artifact-1",
  "contractName": "EMRStorageContract",
  "sourceName": "contracts/EMRStorageContract.sol",
  "abi": [
    {
      "inputs": [
        {
          "internalType": "contract EMRContractDatabase",
          "name": "_database",
          "type": "address"
        }
      ],
      "stateMutability": "nonpayable",
      "type": "constructor"
    },
    {
      "anonymous": false,
      "inputs": [
        {
          "indexed": false,
          "internalType": "address",
          "name": "accessor",
          "type": "address"
        },
        {
          "indexed": false,
          "internalType": "uint256",
          "name": "record_id",
          "type": "uint256"
        }
      ],
      "name": "EMRAccessed",
      "type": "event"
    },
    {
      "anonymous": false,
      "inputs": [
        {
          "indexed": false,
          "internalType": "address",
          "name": "patient",
          "type": "address"
        },
        {
          "indexed": false,
          "internalType": "uint256",
          "name": "record_id",
          "type": "uint256"
        }
      ],
      "name": "EMRCreated",
      "type": "event"
    },
    {
      "anonymous": false,
      "inputs": [
        {
          "indexed": true,
          "internalType": "address",
          "name": "previousOwner",
          "type": "address"
        },
        {
          "indexed": true,
          "internalType": "address",
          "name": "newOwner",
          "type": "address"
        }
      ],
      "name": "OwnershipTransferred",
      "type": "event"
    },
    {
      "inputs": [
        {
          "internalType": "string",
          "name": "_record_type",
          "type": "string"
        },
        {
          "internalType": "string",
          "name": "_record_status",
          "type": "string"
        },
        {
          "internalType": "uint256",
          "name": "_record_date",
          "type": "uint256"
        },
        {
          "internalType": "uint256",
          "name": "_publish_date",
          "type": "uint256"
        },
        {
          "internalType": "string",
          "name": "_ipfs_image_hash",
          "type": "string"
        },
        {
          "internalType": "string",
          "name": "_ipfs_data_hash",
          "type": "string"
        }
      ],
      "name": "addRecord",
      "outputs": [],
      "stateMutability": "nonpayable",
      "type": "function"
    },
    {
      "inputs": [
        {
          "internalType": "uint256",
          "name": "_emrID",
          "type": "uint256"
        }
      ],
      "name": "getEMR",
      "outputs": [
        {
          "components": [
            {
              "internalType": "string",
              "name": "record_type",
              "type": "string"
            },
            {
              "internalType": "string",
              "name": "record_status",
              "type": "string"
            },
            {
              "internalType": "uint256",
              "name": "record_date",
              "type": "uint256"
            },
            {
              "internalType": "uint256",
              "name": "publish_date",
              "type": "uint256"
            },
            {
              "internalType": "string",
              "name": "ipfs_image_hash",
              "type": "string"
            },
            {
              "internalType": "string",
              "name": "ipfs_data_hash",
              "type": "string"
            }
          ],
          "internalType": "struct EMR",
          "name": "",
          "type": "tuple"
        }
      ],
      "stateMutability": "view",
      "type": "function"
    },
    {
      "inputs": [],
      "name": "getEMRIDs",
      "outputs": [
        {
          "internalType": "uint256[]",
          "name": "",
          "type": "uint256[]"
        }
      ],
      "stateMutability": "view",
      "type": "function"
    },
    {
      "inputs": [],
      "name": "owner",
      "outputs": [
        {
          "internalType": "address",
          "name": "",
          "type": "address"
        }
      ],
      "stateMutability": "view",
      "type": "function"
    },
    {
      "inputs": [],
      "name": "renounceOwnership",
      "outputs": [],
      "stateMutability": "nonpayable",
      "type": "function"
    },
    {
      "inputs": [
        {
          "internalType": "address",
          "name": "newOwner",
          "type": "address"
        }
      ],
      "name": "transferOwnership",
      "outputs": [],
      "stateMutability": "nonpayable",
      "type": "function"
    },
    {
      "inputs": [
        {
          "internalType": "uint256",
          "name": "_emrID",
          "type": "uint256"
        }
      ],
      "name": "voidEMR",
      "outputs": [],
      "stateMutability": "nonpayable",
      "type": "function"
    }
  ],
  "bytecode": "0x60806040523480156200001157600080fd5b50604051620014cf380380620014cf833981810160405281019062000037919062000182565b620000576200004b6200009f60201b60201c565b620000a760201b60201c565b80600460006101000a81548173ffffffffffffffffffffffffffffffffffffffff021916908373ffffffffffffffffffffffffffffffffffffffff160217905550506200021b565b600033905090565b60008060009054906101000a900473ffffffffffffffffffffffffffffffffffffffff169050816000806101000a81548173ffffffffffffffffffffffffffffffffffffffff021916908373ffffffffffffffffffffffffffffffffffffffff1602179055508173ffffffffffffffffffffffffffffffffffffffff168173ffffffffffffffffffffffffffffffffffffffff167f8be0079c531659141344cd1fd0a4f28419497f9722a3daafe3b4186f6b6457e060405160405180910390a35050565b6000815190506200017c8162000201565b92915050565b6000602082840312156200019b576200019a620001fc565b5b6000620001ab848285016200016b565b91505092915050565b6000620001c182620001dc565b9050919050565b6000620001d582620001b4565b9050919050565b600073ffffffffffffffffffffffffffffffffffffffff82169050919050565b600080fd5b6200020c81620001c8565b81146200021857600080fd5b50565b6112a4806200022b6000396000f3fe608060405234801561001057600080fd5b506004361061007d5760003560e01c8063715018a61161005b578063715018a6146100ea5780638da5cb5b146100f4578063f2fde38b14610112578063f64f918e1461012e5761007d565b806308f8483814610082578063605555781461009e57806363ee3a86146100ce575b600080fd5b61009c60048036038101906100979190610be9565b61014c565b005b6100b860048036038101906100b39190610be9565b610242565b6040516100c59190610e7c565b60405180910390f35b6100e860048036038101906100e39190610aec565b6104d3565b005b6100f26106bd565b005b6100fc6106d1565b6040516101099190610dd6565b60405180910390f35b61012c60048036038101906101279190610abf565b6106fa565b005b61013661077e565b6040516101439190610e1a565b60405180910390f35b6101546107de565b60005b60038054905081101561023e57816003828154811061017957610178611145565b5b9060005260206000200154141561022b576003818154811061019e5761019d611145565b5b9060005260206000200160009055600360016003805490506101c09190610f5a565b815481106101d1576101d0611145565b5b9060005260206000200154600382815481106101f0576101ef611145565b5b906000526020600020018190555060038054806102105761020f611116565b5b6001900381819060005260206000200160009055905561023e565b80806102369061106f565b915050610157565b5050565b61024a61094c565b6102526107de565b600260008381526020019081526020016000206040518060c00160405290816000820180546102809061100c565b80601f01602080910402602001604051908101604052809291908181526020018280546102ac9061100c565b80156102f95780601f106102ce576101008083540402835291602001916102f9565b820191906000526020600020905b8154815290600101906020018083116102dc57829003601f168201915b505050505081526020016001820180546103129061100c565b80601f016020809104026020016040519081016040528092919081815260200182805461033e9061100c565b801561038b5780601f106103605761010080835404028352916020019161038b565b820191906000526020600020905b81548152906001019060200180831161036e57829003601f168201915b5050505050815260200160028201548152602001600382015481526020016004820180546103b89061100c565b80601f01602080910402602001604051908101604052809291908181526020018280546103e49061100c565b80156104315780601f1061040657610100808354040283529160200191610431565b820191906000526020600020905b81548152906001019060200180831161041457829003601f168201915b5050505050815260200160058201805461044a9061100c565b80601f01602080910402602001604051908101604052809291908181526020018280546104769061100c565b80156104c35780601f10610498576101008083540402835291602001916104c3565b820191906000526020600020905b8154815290600101906020018083116104a657829003601f168201915b5050505050815250509050919050565b6104db6107de565b60006104e7600161085c565b90506040518060c0016040528088815260200187815260200186815260200185815260200184815260200183815250600260008381526020019081526020016000206000820151816000019080519060200190610545929190610982565b506020820151816001019080519060200190610562929190610982565b5060408201518160020155606082015181600301556080820151816004019080519060200190610593929190610982565b5060a08201518160050190805190602001906105b0929190610982565b509050506105be600161086a565b6003819080600181540180825580915050600190039060005260206000200160009091909190915055600460009054906101000a900473ffffffffffffffffffffffffffffffffffffffff1673ffffffffffffffffffffffffffffffffffffffff16637874ede3336040518263ffffffff1660e01b81526004016106429190610dd6565b600060405180830381600087803b15801561065c57600080fd5b505af1158015610670573d6000803e3d6000fd5b505050507f4a079f8e24d76cc87365fc1d54b8c2d56689f1d9cfb29b70413f24c53857c89761069d6106d1565b826040516106ac929190610df1565b60405180910390a150505050505050565b6106c56107de565b6106cf6000610880565b565b60008060009054906101000a900473ffffffffffffffffffffffffffffffffffffffff16905090565b6107026107de565b600073ffffffffffffffffffffffffffffffffffffffff168173ffffffffffffffffffffffffffffffffffffffff161415610772576040517f08c379a000000000000000000000000000000000000000000000000000000000815260040161076990610e3c565b60405180910390fd5b61077b81610880565b50565b60606107886107de565b60038054806020026020016040519081016040528092919081815260200182805480156107d457602002820191906000526020600020905b8154815260200190600101908083116107c0575b5050505050905090565b6107e6610944565b73ffffffffffffffffffffffffffffffffffffffff166108046106d1565b73ffffffffffffffffffffffffffffffffffffffff161461085a576040517f08c379a000000000000000000000000000000000000000000000000000000000815260040161085190610e5c565b60405180910390fd5b565b600081600001549050919050565b6001816000016000828254019250508190555050565b60008060009054906101000a900473ffffffffffffffffffffffffffffffffffffffff169050816000806101000a81548173ffffffffffffffffffffffffffffffffffffffff021916908373ffffffffffffffffffffffffffffffffffffffff1602179055508173ffffffffffffffffffffffffffffffffffffffff168173ffffffffffffffffffffffffffffffffffffffff167f8be0079c531659141344cd1fd0a4f28419497f9722a3daafe3b4186f6b6457e060405160405180910390a35050565b600033905090565b6040518060c001604052806060815260200160608152602001600081526020016000815260200160608152602001606081525090565b82805461098e9061100c565b90600052602060002090601f0160209004810192826109b057600085556109f7565b82601f106109c957805160ff19168380011785556109f7565b828001600101855582156109f7579182015b828111156109f65782518255916020019190600101906109db565b5b509050610a049190610a08565b5090565b5b80821115610a21576000816000905550600101610a09565b5090565b6000610a38610a3384610ec3565b610e9e565b905082815260208101848484011115610a5457610a536111a8565b5b610a5f848285610fca565b509392505050565b600081359050610a7681611240565b92915050565b600082601f830112610a9157610a906111a3565b5b8135610aa1848260208601610a25565b91505092915050565b600081359050610ab981611257565b92915050565b600060208284031215610ad557610ad46111b2565b5b6000610ae384828501610a67565b91505092915050565b60008060008060008060c08789031215610b0957610b086111b2565b5b600087013567ffffffffffffffff811115610b2757610b266111ad565b5b610b3389828a01610a7c565b965050602087013567ffffffffffffffff811115610b5457610b536111ad565b5b610b6089828a01610a7c565b9550506040610b7189828a01610aaa565b9450506060610b8289828a01610aaa565b935050608087013567ffffffffffffffff811115610ba357610ba26111ad565b5b610baf89828a01610a7c565b92505060a087013567ffffffffffffffff811115610bd057610bcf6111ad565b5b610bdc89828a01610a7c565b9150509295509295509295565b600060208284031215610bff57610bfe6111b2565b5b6000610c0d84828501610aaa565b91505092915050565b6000610c228383610db8565b60208301905092915050565b610c3781610f8e565b82525050565b6000610c4882610f04565b610c528185610f27565b9350610c5d83610ef4565b8060005b83811015610c8e578151610c758882610c16565b9750610c8083610f1a565b925050600181019050610c61565b5085935050505092915050565b6000610ca682610f0f565b610cb08185610f38565b9350610cc0818560208601610fd9565b610cc9816111b7565b840191505092915050565b6000610ce1602683610f49565b9150610cec826111c8565b604082019050919050565b6000610d04602083610f49565b9150610d0f82611217565b602082019050919050565b600060c0830160008301518482036000860152610d378282610c9b565b91505060208301518482036020860152610d518282610c9b565b9150506040830151610d666040860182610db8565b506060830151610d796060860182610db8565b5060808301518482036080860152610d918282610c9b565b91505060a083015184820360a0860152610dab8282610c9b565b9150508091505092915050565b610dc181610fc0565b82525050565b610dd081610fc0565b82525050565b6000602082019050610deb6000830184610c2e565b92915050565b6000604082019050610e066000830185610c2e565b610e136020830184610dc7565b9392505050565b60006020820190508181036000830152610e348184610c3d565b905092915050565b60006020820190508181036000830152610e5581610cd4565b9050919050565b60006020820190508181036000830152610e7581610cf7565b9050919050565b60006020820190508181036000830152610e968184610d1a565b905092915050565b6000610ea8610eb9565b9050610eb4828261103e565b919050565b6000604051905090565b600067ffffffffffffffff821115610ede57610edd611174565b5b610ee7826111b7565b9050602081019050919050565b6000819050602082019050919050565b600081519050919050565b600081519050919050565b6000602082019050919050565b600082825260208201905092915050565b600082825260208201905092915050565b600082825260208201905092915050565b6000610f6582610fc0565b9150610f7083610fc0565b925082821015610f8357610f826110b8565b5b828203905092915050565b6000610f9982610fa0565b9050919050565b600073ffffffffffffffffffffffffffffffffffffffff82169050919050565b6000819050919050565b82818337600083830152505050565b60005b83811015610ff7578082015181840152602081019050610fdc565b83811115611006576000848401525b50505050565b6000600282049050600182168061102457607f821691505b60208210811415611038576110376110e7565b5b50919050565b611047826111b7565b810181811067ffffffffffffffff8211171561106657611065611174565b5b80604052505050565b600061107a82610fc0565b91507fffffffffffffffffffffffffffffffffffffffffffffffffffffffffffffffff8214156110ad576110ac6110b8565b5b600182019050919050565b7f4e487b7100000000000000000000000000000000000000000000000000000000600052601160045260246000fd5b7f4e487b7100000000000000000000000000000000000000000000000000000000600052602260045260246000fd5b7f4e487b7100000000000000000000000000000000000000000000000000000000600052603160045260246000fd5b7f4e487b7100000000000000000000000000000000000000000000000000000000600052603260045260246000fd5b7f4e487b7100000000000000000000000000000000000000000000000000000000600052604160045260246000fd5b600080fd5b600080fd5b600080fd5b600080fd5b6000601f19601f8301169050919050565b7f4f776e61626c653a206e6577206f776e657220697320746865207a65726f206160008201527f6464726573730000000000000000000000000000000000000000000000000000602082015250565b7f4f776e61626c653a2063616c6c6572206973206e6f7420746865206f776e6572600082015250565b61124981610f8e565b811461125457600080fd5b50565b61126081610fc0565b811461126b57600080fd5b5056fea26469706673582212206a576cac8f4695a86d2cb20f44ab0fcae4b386f2543ca9c11e6a7d055c2bad5464736f6c63430008070033",
  "linkReferences": {},
  "deployedLinkReferences": {}
}