{
  "_format": "hh-sol-artifact-1",
  "contractName": "EMRStorageContract",
  "sourceName": "contracts/EMRStorageContract.sol",
  "abi": [
    {
      "inputs": [
        {
          "internalType": "contract EMRContractDatabase",
          "name": "_database",
          "type": "address"
        }
      ],
      "stateMutability": "nonpayable",
      "type": "constructor"
    },
    {
      "anonymous": false,
      "inputs": [
        {
          "indexed": false,
          "internalType": "address",
          "name": "accessor",
          "type": "address"
        },
        {
          "indexed": false,
          "internalType": "uint256",
          "name": "record_id",
          "type": "uint256"
        }
      ],
      "name": "EMRAccessed",
      "type": "event"
    },
    {
      "anonymous": false,
      "inputs": [
        {
          "indexed": false,
          "internalType": "address",
          "name": "patient",
          "type": "address"
        },
        {
          "indexed": false,
          "internalType": "uint256",
          "name": "record_id",
          "type": "uint256"
        }
      ],
      "name": "EMRCreated",
      "type": "event"
    },
    {
      "anonymous": false,
      "inputs": [
        {
          "indexed": true,
          "internalType": "address",
          "name": "previousOwner",
          "type": "address"
        },
        {
          "indexed": true,
          "internalType": "address",
          "name": "newOwner",
          "type": "address"
        }
      ],
      "name": "OwnershipTransferred",
      "type": "event"
    },
    {
      "inputs": [
        {
          "internalType": "string",
          "name": "_record_type",
          "type": "string"
        },
        {
          "internalType": "string",
          "name": "_record_status",
          "type": "string"
        },
        {
          "internalType": "uint256",
          "name": "_record_date",
          "type": "uint256"
        },
        {
          "internalType": "string",
          "name": "_ipfs_image_hash",
          "type": "string"
        },
        {
          "internalType": "string",
          "name": "_ipfs_data_hash",
          "type": "string"
        }
      ],
      "name": "addRecord",
      "outputs": [],
      "stateMutability": "nonpayable",
      "type": "function"
    },
    {
      "inputs": [
        {
          "internalType": "string",
          "name": "_record_type",
          "type": "string"
        },
        {
          "internalType": "string",
          "name": "_record_status",
          "type": "string"
        },
        {
          "internalType": "uint256",
          "name": "_record_date",
          "type": "uint256"
        },
        {
          "internalType": "string",
          "name": "_ipfs_image_hash",
          "type": "string"
        },
        {
          "internalType": "string",
          "name": "_ipfs_data_hash",
          "type": "string"
        }
      ],
      "name": "addRecordFromDatabase",
      "outputs": [],
      "stateMutability": "nonpayable",
      "type": "function"
    },
    {
      "inputs": [
        {
          "internalType": "uint256",
          "name": "_emrID",
          "type": "uint256"
        }
      ],
      "name": "getEMR",
      "outputs": [
        {
          "components": [
            {
              "internalType": "string",
              "name": "record_type",
              "type": "string"
            },
            {
              "internalType": "string",
              "name": "record_status",
              "type": "string"
            },
            {
              "internalType": "uint256",
              "name": "record_date",
              "type": "uint256"
            },
            {
              "internalType": "uint256",
              "name": "publish_date",
              "type": "uint256"
            },
            {
              "internalType": "string",
              "name": "ipfs_image_hash",
              "type": "string"
            },
            {
              "internalType": "string",
              "name": "ipfs_data_hash",
              "type": "string"
            }
          ],
          "internalType": "struct EMR",
          "name": "",
          "type": "tuple"
        }
      ],
      "stateMutability": "view",
      "type": "function"
    },
    {
      "inputs": [],
      "name": "getEMRIDs",
      "outputs": [
        {
          "internalType": "uint256[]",
          "name": "",
          "type": "uint256[]"
        }
      ],
      "stateMutability": "view",
      "type": "function"
    },
    {
      "inputs": [],
      "name": "owner",
      "outputs": [
        {
          "internalType": "address",
          "name": "",
          "type": "address"
        }
      ],
      "stateMutability": "view",
      "type": "function"
    },
    {
      "inputs": [],
      "name": "renounceOwnership",
      "outputs": [],
      "stateMutability": "nonpayable",
      "type": "function"
    },
    {
      "inputs": [
        {
          "internalType": "contract EMRContractDatabase",
          "name": "db",
          "type": "address"
        }
      ],
      "name": "setDatabaseAddress",
      "outputs": [],
      "stateMutability": "nonpayable",
      "type": "function"
    },
    {
      "inputs": [
        {
          "internalType": "address",
          "name": "newOwner",
          "type": "address"
        }
      ],
      "name": "transferOwnership",
      "outputs": [],
      "stateMutability": "nonpayable",
      "type": "function"
    },
    {
      "inputs": [
        {
          "internalType": "uint256",
          "name": "_emrID",
          "type": "uint256"
        }
      ],
      "name": "voidEMR",
      "outputs": [],
      "stateMutability": "nonpayable",
      "type": "function"
    }
  ],
  "bytecode": "0x60806040523480156200001157600080fd5b506040516200180a3803806200180a833981810160405281019062000037919062000182565b620000576200004b6200009f60201b60201c565b620000a760201b60201c565b80600460006101000a81548173ffffffffffffffffffffffffffffffffffffffff021916908373ffffffffffffffffffffffffffffffffffffffff160217905550506200021b565b600033905090565b60008060009054906101000a900473ffffffffffffffffffffffffffffffffffffffff169050816000806101000a81548173ffffffffffffffffffffffffffffffffffffffff021916908373ffffffffffffffffffffffffffffffffffffffff1602179055508173ffffffffffffffffffffffffffffffffffffffff168173ffffffffffffffffffffffffffffffffffffffff167f8be0079c531659141344cd1fd0a4f28419497f9722a3daafe3b4186f6b6457e060405160405180910390a35050565b6000815190506200017c8162000201565b92915050565b6000602082840312156200019b576200019a620001fc565b5b6000620001ab848285016200016b565b91505092915050565b6000620001c182620001dc565b9050919050565b6000620001d582620001b4565b9050919050565b600073ffffffffffffffffffffffffffffffffffffffff82169050919050565b600080fd5b6200020c81620001c8565b81146200021857600080fd5b50565b6115df806200022b6000396000f3fe608060405234801561001057600080fd5b50600436106100935760003560e01c80638da5cb5b116100665780638da5cb5b1461010a578063d1b6458814610128578063d753b8ae14610144578063f2fde38b14610160578063f64f918e1461017c57610093565b806308f84838146100985780633b91e045146100b457806360555578146100d0578063715018a614610100575b600080fd5b6100b260048036038101906100ad9190610efb565b61019a565b005b6100ce60048036038101906100c99190610e10565b610290565b005b6100ea60048036038101906100e59190610efb565b610480565b6040516100f7919061118e565b60405180910390f35b610108610711565b005b610112610725565b60405161011f91906110e8565b60405180910390f35b610142600480360381019061013d9190610de3565b61074e565b005b61015e60048036038101906101599190610e10565b61079a565b005b61017a60048036038101906101759190610db6565b6109dc565b005b610184610a60565b604051610191919061112c565b60405180910390f35b6101a2610ac0565b60005b60038054905081101561028c5781600382815481106101c7576101c6611469565b5b9060005260206000200154141561027957600381815481106101ec576101eb611469565b5b90600052602060002001600090556003600160038054905061020e919061126c565b8154811061021f5761021e611469565b5b90600052602060002001546003828154811061023e5761023d611469565b5b9060005260206000200181905550600380548061025e5761025d61143a565b5b6001900381819060005260206000200160009055905561028c565b808061028490611393565b9150506101a5565b5050565b610298610ac0565b60006102a46001610b3e565b90506040518060c0016040528087815260200186815260200185815260200142815260200184815260200183815250600260008381526020019081526020016000206000820151816000019080519060200190610302929190610c2e565b50602082015181600101908051906020019061031f929190610c2e565b5060408201518160020155606082015181600301556080820151816004019080519060200190610350929190610c2e565b5060a082015181600501908051906020019061036d929190610c2e565b5090505061037b6001610b4c565b6003819080600181540180825580915050600190039060005260206000200160009091909190915055600460009054906101000a900473ffffffffffffffffffffffffffffffffffffffff1673ffffffffffffffffffffffffffffffffffffffff16637874ede36103ea610725565b6040518263ffffffff1660e01b815260040161040691906110e8565b600060405180830381600087803b15801561042057600080fd5b505af1158015610434573d6000803e3d6000fd5b505050507f4a079f8e24d76cc87365fc1d54b8c2d56689f1d9cfb29b70413f24c53857c897610461610725565b82604051610470929190611103565b60405180910390a1505050505050565b610488610cb4565b610490610ac0565b600260008381526020019081526020016000206040518060c00160405290816000820180546104be90611330565b80601f01602080910402602001604051908101604052809291908181526020018280546104ea90611330565b80156105375780601f1061050c57610100808354040283529160200191610537565b820191906000526020600020905b81548152906001019060200180831161051a57829003601f168201915b5050505050815260200160018201805461055090611330565b80601f016020809104026020016040519081016040528092919081815260200182805461057c90611330565b80156105c95780601f1061059e576101008083540402835291602001916105c9565b820191906000526020600020905b8154815290600101906020018083116105ac57829003601f168201915b5050505050815260200160028201548152602001600382015481526020016004820180546105f690611330565b80601f016020809104026020016040519081016040528092919081815260200182805461062290611330565b801561066f5780601f106106445761010080835404028352916020019161066f565b820191906000526020600020905b81548152906001019060200180831161065257829003601f168201915b5050505050815260200160058201805461068890611330565b80601f01602080910402602001604051908101604052809291908181526020018280546106b490611330565b80156107015780601f106106d657610100808354040283529160200191610701565b820191906000526020600020905b8154815290600101906020018083116106e457829003601f168201915b5050505050815250509050919050565b610719610ac0565b6107236000610b62565b565b60008060009054906101000a900473ffffffffffffffffffffffffffffffffffffffff16905090565b610756610ac0565b80600460006101000a81548173ffffffffffffffffffffffffffffffffffffffff021916908373ffffffffffffffffffffffffffffffffffffffff16021790555050565b600460009054906101000a900473ffffffffffffffffffffffffffffffffffffffff1673ffffffffffffffffffffffffffffffffffffffff163373ffffffffffffffffffffffffffffffffffffffff16146107f457600080fd5b60006108006001610b3e565b90506040518060c001604052808781526020018681526020018581526020014281526020018481526020018381525060026000838152602001908152602001600020600082015181600001908051906020019061085e929190610c2e565b50602082015181600101908051906020019061087b929190610c2e565b50604082015181600201556060820151816003015560808201518160040190805190602001906108ac929190610c2e565b5060a08201518160050190805190602001906108c9929190610c2e565b509050506108d76001610b4c565b6003819080600181540180825580915050600190039060005260206000200160009091909190915055600460009054906101000a900473ffffffffffffffffffffffffffffffffffffffff1673ffffffffffffffffffffffffffffffffffffffff16637874ede3610946610725565b6040518263ffffffff1660e01b815260040161096291906110e8565b600060405180830381600087803b15801561097c57600080fd5b505af1158015610990573d6000803e3d6000fd5b505050507f4a079f8e24d76cc87365fc1d54b8c2d56689f1d9cfb29b70413f24c53857c8976109bd610725565b826040516109cc929190611103565b60405180910390a1505050505050565b6109e4610ac0565b600073ffffffffffffffffffffffffffffffffffffffff168173ffffffffffffffffffffffffffffffffffffffff161415610a54576040517f08c379a0000000000000000000000000000000000000000000000000000000008152600401610a4b9061114e565b60405180910390fd5b610a5d81610b62565b50565b6060610a6a610ac0565b6003805480602002602001604051908101604052809291908181526020018280548015610ab657602002820191906000526020600020905b815481526020019060010190808311610aa2575b5050505050905090565b610ac8610c26565b73ffffffffffffffffffffffffffffffffffffffff16610ae6610725565b73ffffffffffffffffffffffffffffffffffffffff1614610b3c576040517f08c379a0000000000000000000000000000000000000000000000000000000008152600401610b339061116e565b60405180910390fd5b565b600081600001549050919050565b6001816000016000828254019250508190555050565b60008060009054906101000a900473ffffffffffffffffffffffffffffffffffffffff169050816000806101000a81548173ffffffffffffffffffffffffffffffffffffffff021916908373ffffffffffffffffffffffffffffffffffffffff1602179055508173ffffffffffffffffffffffffffffffffffffffff168173ffffffffffffffffffffffffffffffffffffffff167f8be0079c531659141344cd1fd0a4f28419497f9722a3daafe3b4186f6b6457e060405160405180910390a35050565b600033905090565b828054610c3a90611330565b90600052602060002090601f016020900481019282610c5c5760008555610ca3565b82601f10610c7557805160ff1916838001178555610ca3565b82800160010185558215610ca3579182015b82811115610ca2578251825591602001919060010190610c87565b5b509050610cb09190610cea565b5090565b6040518060c001604052806060815260200160608152602001600081526020016000815260200160608152602001606081525090565b5b80821115610d03576000816000905550600101610ceb565b5090565b6000610d1a610d15846111d5565b6111b0565b905082815260208101848484011115610d3657610d356114cc565b5b610d418482856112ee565b509392505050565b600081359050610d5881611564565b92915050565b600081359050610d6d8161157b565b92915050565b600082601f830112610d8857610d876114c7565b5b8135610d98848260208601610d07565b91505092915050565b600081359050610db081611592565b92915050565b600060208284031215610dcc57610dcb6114d6565b5b6000610dda84828501610d49565b91505092915050565b600060208284031215610df957610df86114d6565b5b6000610e0784828501610d5e565b91505092915050565b600080600080600060a08688031215610e2c57610e2b6114d6565b5b600086013567ffffffffffffffff811115610e4a57610e496114d1565b5b610e5688828901610d73565b955050602086013567ffffffffffffffff811115610e7757610e766114d1565b5b610e8388828901610d73565b9450506040610e9488828901610da1565b935050606086013567ffffffffffffffff811115610eb557610eb46114d1565b5b610ec188828901610d73565b925050608086013567ffffffffffffffff811115610ee257610ee16114d1565b5b610eee88828901610d73565b9150509295509295909350565b600060208284031215610f1157610f106114d6565b5b6000610f1f84828501610da1565b91505092915050565b6000610f3483836110ca565b60208301905092915050565b610f49816112a0565b82525050565b6000610f5a82611216565b610f648185611239565b9350610f6f83611206565b8060005b83811015610fa0578151610f878882610f28565b9750610f928361122c565b925050600181019050610f73565b5085935050505092915050565b6000610fb882611221565b610fc2818561124a565b9350610fd28185602086016112fd565b610fdb816114db565b840191505092915050565b6000610ff360268361125b565b9150610ffe826114ec565b604082019050919050565b600061101660208361125b565b91506110218261153b565b602082019050919050565b600060c08301600083015184820360008601526110498282610fad565b915050602083015184820360208601526110638282610fad565b915050604083015161107860408601826110ca565b50606083015161108b60608601826110ca565b50608083015184820360808601526110a38282610fad565b91505060a083015184820360a08601526110bd8282610fad565b9150508091505092915050565b6110d3816112e4565b82525050565b6110e2816112e4565b82525050565b60006020820190506110fd6000830184610f40565b92915050565b60006040820190506111186000830185610f40565b61112560208301846110d9565b9392505050565b600060208201905081810360008301526111468184610f4f565b905092915050565b6000602082019050818103600083015261116781610fe6565b9050919050565b6000602082019050818103600083015261118781611009565b9050919050565b600060208201905081810360008301526111a8818461102c565b905092915050565b60006111ba6111cb565b90506111c68282611362565b919050565b6000604051905090565b600067ffffffffffffffff8211156111f0576111ef611498565b5b6111f9826114db565b9050602081019050919050565b6000819050602082019050919050565b600081519050919050565b600081519050919050565b6000602082019050919050565b600082825260208201905092915050565b600082825260208201905092915050565b600082825260208201905092915050565b6000611277826112e4565b9150611282836112e4565b925082821015611295576112946113dc565b5b828203905092915050565b60006112ab826112c4565b9050919050565b60006112bd826112a0565b9050919050565b600073ffffffffffffffffffffffffffffffffffffffff82169050919050565b6000819050919050565b82818337600083830152505050565b60005b8381101561131b578082015181840152602081019050611300565b8381111561132a576000848401525b50505050565b6000600282049050600182168061134857607f821691505b6020821081141561135c5761135b61140b565b5b50919050565b61136b826114db565b810181811067ffffffffffffffff8211171561138a57611389611498565b5b80604052505050565b600061139e826112e4565b91507fffffffffffffffffffffffffffffffffffffffffffffffffffffffffffffffff8214156113d1576113d06113dc565b5b600182019050919050565b7f4e487b7100000000000000000000000000000000000000000000000000000000600052601160045260246000fd5b7f4e487b7100000000000000000000000000000000000000000000000000000000600052602260045260246000fd5b7f4e487b7100000000000000000000000000000000000000000000000000000000600052603160045260246000fd5b7f4e487b7100000000000000000000000000000000000000000000000000000000600052603260045260246000fd5b7f4e487b7100000000000000000000000000000000000000000000000000000000600052604160045260246000fd5b600080fd5b600080fd5b600080fd5b600080fd5b6000601f19601f8301169050919050565b7f4f776e61626c653a206e6577206f776e657220697320746865207a65726f206160008201527f6464726573730000000000000000000000000000000000000000000000000000602082015250565b7f4f776e61626c653a2063616c6c6572206973206e6f7420746865206f776e6572600082015250565b61156d816112a0565b811461157857600080fd5b50565b611584816112b2565b811461158f57600080fd5b50565b61159b816112e4565b81146115a657600080fd5b5056fea2646970667358221220113d1afacc81e8e2a58830a9069ff45a73bc37141a5dfe1cf54bbaf64060b92264736f6c63430008070033",
  "linkReferences": {},
  "deployedLinkReferences": {}
}