{
  "_format": "hh-sol-artifact-1",
  "contractName": "EMRContract",
  "sourceName": "contracts/EMRContract.sol",
  "abi": [
    {
      "inputs": [
        {
          "internalType": "string",
          "name": "_record_type",
          "type": "string"
        },
        {
          "internalType": "string",
          "name": "_record_status",
          "type": "string"
        },
        {
          "internalType": "uint256",
          "name": "_record_date",
          "type": "uint256"
        },
        {
          "internalType": "string",
          "name": "_ipfs_image_hash",
          "type": "string"
        },
        {
          "internalType": "string",
          "name": "_ipfs_data_hash",
          "type": "string"
        }
      ],
      "stateMutability": "nonpayable",
      "type": "constructor"
    },
    {
      "anonymous": false,
      "inputs": [
        {
          "indexed": true,
          "internalType": "address",
          "name": "previousOwner",
          "type": "address"
        },
        {
          "indexed": true,
          "internalType": "address",
          "name": "newOwner",
          "type": "address"
        }
      ],
      "name": "OwnershipTransferred",
      "type": "event"
    },
    {
      "inputs": [],
      "name": "getDataIPFSHash",
      "outputs": [
        {
          "internalType": "string",
          "name": "",
          "type": "string"
        }
      ],
      "stateMutability": "view",
      "type": "function"
    },
    {
      "inputs": [],
      "name": "getEMRHashes",
      "outputs": [
        {
          "internalType": "string",
          "name": "",
          "type": "string"
        },
        {
          "internalType": "string",
          "name": "",
          "type": "string"
        }
      ],
      "stateMutability": "view",
      "type": "function"
    },
    {
      "inputs": [],
      "name": "getImageIPFSHash",
      "outputs": [
        {
          "internalType": "string",
          "name": "",
          "type": "string"
        }
      ],
      "stateMutability": "view",
      "type": "function"
    },
    {
      "inputs": [],
      "name": "getPublishDate",
      "outputs": [
        {
          "internalType": "uint256",
          "name": "",
          "type": "uint256"
        }
      ],
      "stateMutability": "view",
      "type": "function"
    },
    {
      "inputs": [],
      "name": "getRecordDate",
      "outputs": [
        {
          "internalType": "uint256",
          "name": "",
          "type": "uint256"
        }
      ],
      "stateMutability": "view",
      "type": "function"
    },
    {
      "inputs": [],
      "name": "getRecordStatus",
      "outputs": [
        {
          "internalType": "string",
          "name": "",
          "type": "string"
        }
      ],
      "stateMutability": "view",
      "type": "function"
    },
    {
      "inputs": [],
      "name": "getRecordType",
      "outputs": [
        {
          "internalType": "string",
          "name": "",
          "type": "string"
        }
      ],
      "stateMutability": "view",
      "type": "function"
    },
    {
      "inputs": [],
      "name": "owner",
      "outputs": [
        {
          "internalType": "address",
          "name": "",
          "type": "address"
        }
      ],
      "stateMutability": "view",
      "type": "function"
    },
    {
      "inputs": [],
      "name": "patient",
      "outputs": [
        {
          "internalType": "address",
          "name": "",
          "type": "address"
        }
      ],
      "stateMutability": "view",
      "type": "function"
    },
    {
      "inputs": [],
      "name": "renounceOwnership",
      "outputs": [],
      "stateMutability": "nonpayable",
      "type": "function"
    },
    {
      "inputs": [
        {
          "internalType": "address",
          "name": "newOwner",
          "type": "address"
        }
      ],
      "name": "transferOwnership",
      "outputs": [],
      "stateMutability": "nonpayable",
      "type": "function"
    }
  ],
  "bytecode": "0x60806040523480156200001157600080fd5b5060405162001434380380620014348339818101604052810190620000379190620002d9565b620000576200004b620000d460201b60201c565b620000dc60201b60201c565b83600490805190602001906200006f929190620001a0565b508260058190555042600681905550846003908051906020019062000096929190620001a0565b508160079080519060200190620000af929190620001a0565b508060089080519060200190620000c8929190620001a0565b50505050505062000553565b600033905090565b60008060009054906101000a900473ffffffffffffffffffffffffffffffffffffffff169050816000806101000a81548173ffffffffffffffffffffffffffffffffffffffff021916908373ffffffffffffffffffffffffffffffffffffffff1602179055508173ffffffffffffffffffffffffffffffffffffffff168173ffffffffffffffffffffffffffffffffffffffff167f8be0079c531659141344cd1fd0a4f28419497f9722a3daafe3b4186f6b6457e060405160405180910390a35050565b828054620001ae906200045e565b90600052602060002090601f016020900481019282620001d257600085556200021e565b82601f10620001ed57805160ff19168380011785556200021e565b828001600101855582156200021e579182015b828111156200021d57825182559160200191906001019062000200565b5b5090506200022d919062000231565b5090565b5b808211156200024c57600081600090555060010162000232565b5090565b6000620002676200026184620003e8565b620003bf565b9050828152602081018484840111156200028057600080fd5b6200028d84828562000428565b509392505050565b600082601f830112620002a757600080fd5b8151620002b984826020860162000250565b91505092915050565b600081519050620002d38162000539565b92915050565b600080600080600060a08688031215620002f257600080fd5b600086015167ffffffffffffffff8111156200030d57600080fd5b6200031b8882890162000295565b955050602086015167ffffffffffffffff8111156200033957600080fd5b620003478882890162000295565b94505060406200035a88828901620002c2565b935050606086015167ffffffffffffffff8111156200037857600080fd5b620003868882890162000295565b925050608086015167ffffffffffffffff811115620003a457600080fd5b620003b28882890162000295565b9150509295509295909350565b6000620003cb620003de565b9050620003d9828262000494565b919050565b6000604051905090565b600067ffffffffffffffff821115620004065762000405620004f9565b5b620004118262000528565b9050602081019050919050565b6000819050919050565b60005b83811015620004485780820151818401526020810190506200042b565b8381111562000458576000848401525b50505050565b600060028204905060018216806200047757607f821691505b602082108114156200048e576200048d620004ca565b5b50919050565b6200049f8262000528565b810181811067ffffffffffffffff82111715620004c157620004c0620004f9565b5b80604052505050565b7f4e487b7100000000000000000000000000000000000000000000000000000000600052602260045260246000fd5b7f4e487b7100000000000000000000000000000000000000000000000000000000600052604160045260246000fd5b6000601f19601f8301169050919050565b62000544816200041e565b81146200055057600080fd5b50565b610ed180620005636000396000f3fe608060405234801561001057600080fd5b50600436106100a95760003560e01c806387fef60a1161007157806387fef60a146101315780638da5cb5b1461014f578063a4e0a8841461016d578063bd96bd201461018b578063d5466bf1146101a9578063f2fde38b146101c7576100a9565b80630781f5c9146100ae5780631bb5e644146100cc5780632de52364146100ea578063715018a6146101095780637156521314610113575b600080fd5b6100b66101e3565b6040516100c39190610c5b565b60405180910390f35b6100d46102f1565b6040516100e19190610cf4565b60405180910390f35b6100f2610377565b604051610100929190610c7d565b60405180910390f35b61011161051a565b005b61011b6105a2565b6040516101289190610c5b565b60405180910390f35b6101396106b0565b6040516101469190610c5b565b60405180910390f35b6101576107be565b6040516101649190610c40565b60405180910390f35b6101756107e7565b6040516101829190610cf4565b60405180910390f35b61019361086d565b6040516101a09190610c40565b60405180910390f35b6101b1610893565b6040516101be9190610c5b565b60405180910390f35b6101e160048036038101906101dc9190610b7a565b6109a1565b005b60606101ed610a99565b73ffffffffffffffffffffffffffffffffffffffff1661020b6107be565b73ffffffffffffffffffffffffffffffffffffffff1614610261576040517f08c379a000000000000000000000000000000000000000000000000000000000815260040161025890610cd4565b60405180910390fd5b6003805461026e90610d9a565b80601f016020809104026020016040519081016040528092919081815260200182805461029a90610d9a565b80156102e75780601f106102bc576101008083540402835291602001916102e7565b820191906000526020600020905b8154815290600101906020018083116102ca57829003601f168201915b5050505050905090565b60006102fb610a99565b73ffffffffffffffffffffffffffffffffffffffff166103196107be565b73ffffffffffffffffffffffffffffffffffffffff161461036f576040517f08c379a000000000000000000000000000000000000000000000000000000000815260040161036690610cd4565b60405180910390fd5b600554905090565b606080610382610a99565b73ffffffffffffffffffffffffffffffffffffffff166103a06107be565b73ffffffffffffffffffffffffffffffffffffffff16146103f6576040517f08c379a00000000000000000000000000000000000000000000000000000000081526004016103ed90610cd4565b60405180910390fd5b6007600881805461040690610d9a565b80601f016020809104026020016040519081016040528092919081815260200182805461043290610d9a565b801561047f5780601f106104545761010080835404028352916020019161047f565b820191906000526020600020905b81548152906001019060200180831161046257829003601f168201915b5050505050915080805461049290610d9a565b80601f01602080910402602001604051908101604052809291908181526020018280546104be90610d9a565b801561050b5780601f106104e05761010080835404028352916020019161050b565b820191906000526020600020905b8154815290600101906020018083116104ee57829003601f168201915b50505050509050915091509091565b610522610a99565b73ffffffffffffffffffffffffffffffffffffffff166105406107be565b73ffffffffffffffffffffffffffffffffffffffff1614610596576040517f08c379a000000000000000000000000000000000000000000000000000000000815260040161058d90610cd4565b60405180910390fd5b6105a06000610aa1565b565b60606105ac610a99565b73ffffffffffffffffffffffffffffffffffffffff166105ca6107be565b73ffffffffffffffffffffffffffffffffffffffff1614610620576040517f08c379a000000000000000000000000000000000000000000000000000000000815260040161061790610cd4565b60405180910390fd5b6004805461062d90610d9a565b80601f016020809104026020016040519081016040528092919081815260200182805461065990610d9a565b80156106a65780601f1061067b576101008083540402835291602001916106a6565b820191906000526020600020905b81548152906001019060200180831161068957829003601f168201915b5050505050905090565b60606106ba610a99565b73ffffffffffffffffffffffffffffffffffffffff166106d86107be565b73ffffffffffffffffffffffffffffffffffffffff161461072e576040517f08c379a000000000000000000000000000000000000000000000000000000000815260040161072590610cd4565b60405180910390fd5b6008805461073b90610d9a565b80601f016020809104026020016040519081016040528092919081815260200182805461076790610d9a565b80156107b45780601f10610789576101008083540402835291602001916107b4565b820191906000526020600020905b81548152906001019060200180831161079757829003601f168201915b5050505050905090565b60008060009054906101000a900473ffffffffffffffffffffffffffffffffffffffff16905090565b60006107f1610a99565b73ffffffffffffffffffffffffffffffffffffffff1661080f6107be565b73ffffffffffffffffffffffffffffffffffffffff1614610865576040517f08c379a000000000000000000000000000000000000000000000000000000000815260040161085c90610cd4565b60405180910390fd5b600654905090565b600260009054906101000a900473ffffffffffffffffffffffffffffffffffffffff1681565b606061089d610a99565b73ffffffffffffffffffffffffffffffffffffffff166108bb6107be565b73ffffffffffffffffffffffffffffffffffffffff1614610911576040517f08c379a000000000000000000000000000000000000000000000000000000000815260040161090890610cd4565b60405180910390fd5b6007805461091e90610d9a565b80601f016020809104026020016040519081016040528092919081815260200182805461094a90610d9a565b80156109975780601f1061096c57610100808354040283529160200191610997565b820191906000526020600020905b81548152906001019060200180831161097a57829003601f168201915b5050505050905090565b6109a9610a99565b73ffffffffffffffffffffffffffffffffffffffff166109c76107be565b73ffffffffffffffffffffffffffffffffffffffff1614610a1d576040517f08c379a0000000000000000000000000000000000000000000000000000000008152600401610a1490610cd4565b60405180910390fd5b600073ffffffffffffffffffffffffffffffffffffffff168173ffffffffffffffffffffffffffffffffffffffff161415610a8d576040517f08c379a0000000000000000000000000000000000000000000000000000000008152600401610a8490610cb4565b60405180910390fd5b610a9681610aa1565b50565b600033905090565b60008060009054906101000a900473ffffffffffffffffffffffffffffffffffffffff169050816000806101000a81548173ffffffffffffffffffffffffffffffffffffffff021916908373ffffffffffffffffffffffffffffffffffffffff1602179055508173ffffffffffffffffffffffffffffffffffffffff168173ffffffffffffffffffffffffffffffffffffffff167f8be0079c531659141344cd1fd0a4f28419497f9722a3daafe3b4186f6b6457e060405160405180910390a35050565b600081359050610b7481610e84565b92915050565b600060208284031215610b8c57600080fd5b6000610b9a84828501610b65565b91505092915050565b610bac81610d2b565b82525050565b6000610bbd82610d0f565b610bc78185610d1a565b9350610bd7818560208601610d67565b610be081610dfb565b840191505092915050565b6000610bf8602683610d1a565b9150610c0382610e0c565b604082019050919050565b6000610c1b602083610d1a565b9150610c2682610e5b565b602082019050919050565b610c3a81610d5d565b82525050565b6000602082019050610c556000830184610ba3565b92915050565b60006020820190508181036000830152610c758184610bb2565b905092915050565b60006040820190508181036000830152610c978185610bb2565b90508181036020830152610cab8184610bb2565b90509392505050565b60006020820190508181036000830152610ccd81610beb565b9050919050565b60006020820190508181036000830152610ced81610c0e565b9050919050565b6000602082019050610d096000830184610c31565b92915050565b600081519050919050565b600082825260208201905092915050565b6000610d3682610d3d565b9050919050565b600073ffffffffffffffffffffffffffffffffffffffff82169050919050565b6000819050919050565b60005b83811015610d85578082015181840152602081019050610d6a565b83811115610d94576000848401525b50505050565b60006002820490506001821680610db257607f821691505b60208210811415610dc657610dc5610dcc565b5b50919050565b7f4e487b7100000000000000000000000000000000000000000000000000000000600052602260045260246000fd5b6000601f19601f8301169050919050565b7f4f776e61626c653a206e6577206f776e657220697320746865207a65726f206160008201527f6464726573730000000000000000000000000000000000000000000000000000602082015250565b7f4f776e61626c653a2063616c6c6572206973206e6f7420746865206f776e6572600082015250565b610e8d81610d2b565b8114610e9857600080fd5b5056fea2646970667358221220b792920c11f8a77a44cbbd78437c70c6523c1489fd50bf8df2d79a80cca4309864736f6c63430008040033",
  "linkReferences": {},
  "deployedLinkReferences": {}
}