{
  "_format": "hh-sol-artifact-1",
  "contractName": "EMRDatabase",
  "sourceName": "contracts/EMRDatabase.sol",
  "abi": [
    {
      "inputs": [
        {
          "internalType": "contract IERC20",
          "name": "_heracoin",
          "type": "address"
        }
      ],
      "stateMutability": "nonpayable",
      "type": "constructor"
    },
    {
      "anonymous": false,
      "inputs": [
        {
          "indexed": false,
          "internalType": "address",
          "name": "add",
          "type": "address"
        }
      ],
      "name": "EMRAccessed",
      "type": "event"
    },
    {
      "anonymous": false,
      "inputs": [
        {
          "indexed": false,
          "internalType": "address",
          "name": "patient",
          "type": "address"
        },
        {
          "indexed": false,
          "internalType": "uint256",
          "name": "record_id",
          "type": "uint256"
        }
      ],
      "name": "EMRCreated",
      "type": "event"
    },
    {
      "anonymous": false,
      "inputs": [
        {
          "indexed": true,
          "internalType": "address",
          "name": "previousOwner",
          "type": "address"
        },
        {
          "indexed": true,
          "internalType": "address",
          "name": "newOwner",
          "type": "address"
        }
      ],
      "name": "OwnershipTransferred",
      "type": "event"
    },
    {
      "anonymous": false,
      "inputs": [
        {
          "indexed": true,
          "internalType": "bytes32",
          "name": "role",
          "type": "bytes32"
        },
        {
          "indexed": true,
          "internalType": "bytes32",
          "name": "previousAdminRole",
          "type": "bytes32"
        },
        {
          "indexed": true,
          "internalType": "bytes32",
          "name": "newAdminRole",
          "type": "bytes32"
        }
      ],
      "name": "RoleAdminChanged",
      "type": "event"
    },
    {
      "anonymous": false,
      "inputs": [
        {
          "indexed": true,
          "internalType": "bytes32",
          "name": "role",
          "type": "bytes32"
        },
        {
          "indexed": true,
          "internalType": "address",
          "name": "account",
          "type": "address"
        },
        {
          "indexed": true,
          "internalType": "address",
          "name": "sender",
          "type": "address"
        }
      ],
      "name": "RoleGranted",
      "type": "event"
    },
    {
      "anonymous": false,
      "inputs": [
        {
          "indexed": true,
          "internalType": "bytes32",
          "name": "role",
          "type": "bytes32"
        },
        {
          "indexed": true,
          "internalType": "address",
          "name": "account",
          "type": "address"
        },
        {
          "indexed": true,
          "internalType": "address",
          "name": "sender",
          "type": "address"
        }
      ],
      "name": "RoleRevoked",
      "type": "event"
    },
    {
      "anonymous": false,
      "inputs": [
        {
          "indexed": false,
          "internalType": "uint256",
          "name": "amount",
          "type": "uint256"
        },
        {
          "indexed": false,
          "internalType": "address",
          "name": "fromAccount",
          "type": "address"
        },
        {
          "indexed": false,
          "internalType": "address",
          "name": "toAccount",
          "type": "address"
        },
        {
          "indexed": false,
          "internalType": "uint256",
          "name": "totalBalance",
          "type": "uint256"
        }
      ],
      "name": "SentRewardTokens",
      "type": "event"
    },
    {
      "inputs": [],
      "name": "DEFAULT_ADMIN_ROLE",
      "outputs": [
        {
          "internalType": "bytes32",
          "name": "",
          "type": "bytes32"
        }
      ],
      "stateMutability": "view",
      "type": "function"
    },
    {
      "inputs": [
        {
          "internalType": "string",
          "name": "_record_type",
          "type": "string"
        },
        {
          "internalType": "string",
          "name": "_record_status",
          "type": "string"
        },
        {
          "internalType": "uint256",
          "name": "_record_date",
          "type": "uint256"
        },
        {
          "internalType": "string",
          "name": "_ipfs_image_hash",
          "type": "string"
        },
        {
          "internalType": "string",
          "name": "_ipfs_data_hash",
          "type": "string"
        }
      ],
      "name": "createEMR",
      "outputs": [
        {
          "internalType": "bool",
          "name": "",
          "type": "bool"
        }
      ],
      "stateMutability": "nonpayable",
      "type": "function"
    },
    {
      "inputs": [
        {
          "internalType": "uint256",
          "name": "_id",
          "type": "uint256"
        }
      ],
      "name": "getEMRById",
      "outputs": [
        {
          "components": [
            {
              "internalType": "uint256",
              "name": "id",
              "type": "uint256"
            },
            {
              "internalType": "address",
              "name": "owner",
              "type": "address"
            },
            {
              "internalType": "string",
              "name": "record_type",
              "type": "string"
            },
            {
              "internalType": "string",
              "name": "record_status",
              "type": "string"
            },
            {
              "internalType": "uint256",
              "name": "record_date",
              "type": "uint256"
            },
            {
              "internalType": "uint256",
              "name": "publish_date",
              "type": "uint256"
            },
            {
              "internalType": "string",
              "name": "ipfs_image_hash",
              "type": "string"
            },
            {
              "internalType": "string",
              "name": "ipfs_data_hash",
              "type": "string"
            }
          ],
          "internalType": "struct EMRDatabase.EMR",
          "name": "",
          "type": "tuple"
        }
      ],
      "stateMutability": "view",
      "type": "function"
    },
    {
      "inputs": [
        {
          "components": [
            {
              "internalType": "uint256",
              "name": "id",
              "type": "uint256"
            },
            {
              "internalType": "address",
              "name": "owner",
              "type": "address"
            },
            {
              "internalType": "string",
              "name": "record_type",
              "type": "string"
            },
            {
              "internalType": "string",
              "name": "record_status",
              "type": "string"
            },
            {
              "internalType": "uint256",
              "name": "record_date",
              "type": "uint256"
            },
            {
              "internalType": "uint256",
              "name": "publish_date",
              "type": "uint256"
            },
            {
              "internalType": "string",
              "name": "ipfs_image_hash",
              "type": "string"
            },
            {
              "internalType": "string",
              "name": "ipfs_data_hash",
              "type": "string"
            }
          ],
          "internalType": "struct EMRDatabase.EMR",
          "name": "emr",
          "type": "tuple"
        }
      ],
      "name": "getEMRHashes",
      "outputs": [
        {
          "internalType": "string",
          "name": "",
          "type": "string"
        },
        {
          "internalType": "string",
          "name": "",
          "type": "string"
        }
      ],
      "stateMutability": "nonpayable",
      "type": "function"
    },
    {
      "inputs": [],
      "name": "getOwnedEMRsArray",
      "outputs": [
        {
          "internalType": "uint256[]",
          "name": "",
          "type": "uint256[]"
        }
      ],
      "stateMutability": "nonpayable",
      "type": "function"
    },
    {
      "inputs": [
        {
          "internalType": "bytes32",
          "name": "role",
          "type": "bytes32"
        }
      ],
      "name": "getRoleAdmin",
      "outputs": [
        {
          "internalType": "bytes32",
          "name": "",
          "type": "bytes32"
        }
      ],
      "stateMutability": "view",
      "type": "function"
    },
    {
      "inputs": [
        {
          "internalType": "bytes32",
          "name": "role",
          "type": "bytes32"
        },
        {
          "internalType": "address",
          "name": "account",
          "type": "address"
        }
      ],
      "name": "grantRole",
      "outputs": [],
      "stateMutability": "nonpayable",
      "type": "function"
    },
    {
      "inputs": [
        {
          "internalType": "bytes32",
          "name": "role",
          "type": "bytes32"
        },
        {
          "internalType": "address",
          "name": "account",
          "type": "address"
        }
      ],
      "name": "hasRole",
      "outputs": [
        {
          "internalType": "bool",
          "name": "",
          "type": "bool"
        }
      ],
      "stateMutability": "view",
      "type": "function"
    },
    {
      "inputs": [],
      "name": "owner",
      "outputs": [
        {
          "internalType": "address",
          "name": "",
          "type": "address"
        }
      ],
      "stateMutability": "view",
      "type": "function"
    },
    {
      "inputs": [],
      "name": "renounceOwnership",
      "outputs": [],
      "stateMutability": "nonpayable",
      "type": "function"
    },
    {
      "inputs": [
        {
          "internalType": "bytes32",
          "name": "role",
          "type": "bytes32"
        },
        {
          "internalType": "address",
          "name": "account",
          "type": "address"
        }
      ],
      "name": "renounceRole",
      "outputs": [],
      "stateMutability": "nonpayable",
      "type": "function"
    },
    {
      "inputs": [
        {
          "internalType": "bytes32",
          "name": "role",
          "type": "bytes32"
        },
        {
          "internalType": "address",
          "name": "account",
          "type": "address"
        }
      ],
      "name": "revokeRole",
      "outputs": [],
      "stateMutability": "nonpayable",
      "type": "function"
    },
    {
      "inputs": [],
      "name": "reward_amount",
      "outputs": [
        {
          "internalType": "uint256",
          "name": "",
          "type": "uint256"
        }
      ],
      "stateMutability": "view",
      "type": "function"
    },
    {
      "inputs": [
        {
          "internalType": "uint256",
          "name": "reward",
          "type": "uint256"
        }
      ],
      "name": "setRewardAmount",
      "outputs": [
        {
          "internalType": "bool",
          "name": "",
          "type": "bool"
        }
      ],
      "stateMutability": "nonpayable",
      "type": "function"
    },
    {
      "inputs": [
        {
          "internalType": "bytes4",
          "name": "interfaceId",
          "type": "bytes4"
        }
      ],
      "name": "supportsInterface",
      "outputs": [
        {
          "internalType": "bool",
          "name": "",
          "type": "bool"
        }
      ],
      "stateMutability": "view",
      "type": "function"
    },
    {
      "inputs": [
        {
          "internalType": "address",
          "name": "newOwner",
          "type": "address"
        }
      ],
      "name": "transferOwnership",
      "outputs": [],
      "stateMutability": "nonpayable",
      "type": "function"
    }
  ],
  "bytecode": "0x60806040523480156200001157600080fd5b50604051620027d5380380620027d5833981810160405281019062000037919062000182565b620000576200004b6200009f60201b60201c565b620000a760201b60201c565b80600260006101000a81548173ffffffffffffffffffffffffffffffffffffffff021916908373ffffffffffffffffffffffffffffffffffffffff1602179055505062000210565b600033905090565b60008060009054906101000a900473ffffffffffffffffffffffffffffffffffffffff169050816000806101000a81548173ffffffffffffffffffffffffffffffffffffffff021916908373ffffffffffffffffffffffffffffffffffffffff1602179055508173ffffffffffffffffffffffffffffffffffffffff168173ffffffffffffffffffffffffffffffffffffffff167f8be0079c531659141344cd1fd0a4f28419497f9722a3daafe3b4186f6b6457e060405160405180910390a35050565b6000815190506200017c81620001f6565b92915050565b6000602082840312156200019557600080fd5b6000620001a5848285016200016b565b91505092915050565b6000620001bb82620001d6565b9050919050565b6000620001cf82620001ae565b9050919050565b600073ffffffffffffffffffffffffffffffffffffffff82169050919050565b6200020181620001c2565b81146200020d57600080fd5b50565b6125b580620002206000396000f3fe608060405234801561001057600080fd5b50600436106101005760003560e01c806391d1485411610097578063b728a69c11610066578063b728a69c146102b0578063b7701f3c146102e0578063d547741f14610310578063f2fde38b1461032c57610100565b806391d14854146102015780639ffac04f14610231578063a217fddf14610262578063a8a65a781461028057610100565b806335b7f7c3116100d357806335b7f7c31461019f57806336568abe146101bd578063715018a6146101d95780638da5cb5b146101e357610100565b806301ffc9a7146101055780632381a60e14610135578063248a9ca3146101535780632f2ff15d14610183575b600080fd5b61011f600480360381019061011a919061191a565b610348565b60405161012c9190611fc8565b60405180910390f35b61013d6103c2565b60405161014a9190612119565b60405180910390f35b61016d600480360381019061016891906118b5565b6103c8565b60405161017a9190611fe3565b60405180910390f35b61019d600480360381019061019891906118de565b6103e8565b005b6101a7610411565b6040516101b49190611fa6565b60405180910390f35b6101d760048036038101906101d291906118de565b6104a6565b005b6101e1610529565b005b6101eb6105b1565b6040516101f89190611f2b565b60405180910390f35b61021b600480360381019061021691906118de565b6105da565b6040516102289190611fc8565b60405180910390f35b61024b60048036038101906102469190611a1a565b610645565b604051610259929190612020565b60405180910390f35b61026a610753565b6040516102779190611fe3565b60405180910390f35b61029a60048036038101906102959190611a5b565b61075a565b6040516102a79190611fc8565b60405180910390f35b6102ca60048036038101906102c59190611943565b6107e8565b6040516102d79190611fc8565b60405180910390f35b6102fa60048036038101906102f59190611a5b565b61098d565b60405161030791906120f7565b60405180910390f35b61032a600480360381019061032591906118de565b610cef565b005b61034660048036038101906103419190611863565b610d18565b005b60007f7965db0b000000000000000000000000000000000000000000000000000000007bffffffffffffffffffffffffffffffffffffffffffffffffffffffff1916827bffffffffffffffffffffffffffffffffffffffffffffffffffffffff191614806103bb57506103ba82610e10565b5b9050919050565b60035481565b600060016000838152602001908152602001600020600101549050919050565b6103f1826103c8565b610402816103fd610e7a565b610e82565b61040c8383610f1f565b505050565b6060600660003373ffffffffffffffffffffffffffffffffffffffff1673ffffffffffffffffffffffffffffffffffffffff16815260200190815260200160002080548060200260200160405190810160405280929190818152602001828054801561049c57602002820191906000526020600020905b815481526020019060010190808311610488575b5050505050905090565b6104ae610e7a565b73ffffffffffffffffffffffffffffffffffffffff168173ffffffffffffffffffffffffffffffffffffffff161461051b576040517f08c379a0000000000000000000000000000000000000000000000000000000008152600401610512906120d7565b60405180910390fd5b6105258282610fff565b5050565b610531610e7a565b73ffffffffffffffffffffffffffffffffffffffff1661054f6105b1565b73ffffffffffffffffffffffffffffffffffffffff16146105a5576040517f08c379a000000000000000000000000000000000000000000000000000000000815260040161059c906120b7565b60405180910390fd5b6105af60006110e1565b565b60008060009054906101000a900473ffffffffffffffffffffffffffffffffffffffff16905090565b60006001600084815260200190815260200160002060000160008373ffffffffffffffffffffffffffffffffffffffff1673ffffffffffffffffffffffffffffffffffffffff16815260200190815260200160002060009054906101000a900460ff16905092915050565b60608033838173ffffffffffffffffffffffffffffffffffffffff168160200160208101906106749190611863565b73ffffffffffffffffffffffffffffffffffffffff161461069457600080fd5b848060c001906106a49190612179565b868060e001906106b49190612179565b83838080601f016020809104026020016040519081016040528093929190818152602001838380828437600081840152601f19601f8201169050808301925050505050505092509091925081818080601f016020809104026020016040519081016040528093929190818152602001838380828437600081840152601f19601f8201169050808301925050505050505090509050935093505050915091565b6000801b81565b6000610764610e7a565b73ffffffffffffffffffffffffffffffffffffffff166107826105b1565b73ffffffffffffffffffffffffffffffffffffffff16146107d8576040517f08c379a00000000000000000000000000000000000000000000000000000000081526004016107cf906120b7565b60405180910390fd5b8160038190555060019050919050565b60006107f460046111a5565b600061080060046111bb565b90506000600560008381526020019081526020016000209050818160000181905550338160010160006101000a81548173ffffffffffffffffffffffffffffffffffffffff021916908373ffffffffffffffffffffffffffffffffffffffff1602179055508681600301908051906020019061087d929190611663565b508581600401819055508781600201908051906020019061089f929190611663565b50848160060190805190602001906108b8929190611663565b50848160070190805190602001906108d1929190611663565b50600660003373ffffffffffffffffffffffffffffffffffffffff1673ffffffffffffffffffffffffffffffffffffffff168152602001908152602001600020816000015490806001815401808255809150506001900390600052602060002001600090919091909150557f4a079f8e24d76cc87365fc1d54b8c2d56689f1d9cfb29b70413f24c53857c897338260000154604051610971929190611f7d565b60405180910390a1610982336111c9565b505095945050505050565b6109956116e9565b60006005600084815260200190815260200160002060405180610100016040529081600082015481526020016001820160009054906101000a900473ffffffffffffffffffffffffffffffffffffffff1673ffffffffffffffffffffffffffffffffffffffff1673ffffffffffffffffffffffffffffffffffffffff168152602001600282018054610a269061243c565b80601f0160208091040260200160405190810160405280929190818152602001828054610a529061243c565b8015610a9f5780601f10610a7457610100808354040283529160200191610a9f565b820191906000526020600020905b815481529060010190602001808311610a8257829003601f168201915b50505050508152602001600382018054610ab89061243c565b80601f0160208091040260200160405190810160405280929190818152602001828054610ae49061243c565b8015610b315780601f10610b0657610100808354040283529160200191610b31565b820191906000526020600020905b815481529060010190602001808311610b1457829003601f168201915b505050505081526020016004820154815260200160058201548152602001600682018054610b5e9061243c565b80601f0160208091040260200160405190810160405280929190818152602001828054610b8a9061243c565b8015610bd75780601f10610bac57610100808354040283529160200191610bd7565b820191906000526020600020905b815481529060010190602001808311610bba57829003601f168201915b50505050508152602001600782018054610bf09061243c565b80601f0160208091040260200160405190810160405280929190818152602001828054610c1c9061243c565b8015610c695780601f10610c3e57610100808354040283529160200191610c69565b820191906000526020600020905b815481529060010190602001808311610c4c57829003601f168201915b5050505050815250509050806020015173ffffffffffffffffffffffffffffffffffffffff163373ffffffffffffffffffffffffffffffffffffffff1614610ce6576040517f08c379a0000000000000000000000000000000000000000000000000000000008152600401610cdd90612077565b60405180910390fd5b80915050919050565b610cf8826103c8565b610d0981610d04610e7a565b610e82565b610d138383610fff565b505050565b610d20610e7a565b73ffffffffffffffffffffffffffffffffffffffff16610d3e6105b1565b73ffffffffffffffffffffffffffffffffffffffff1614610d94576040517f08c379a0000000000000000000000000000000000000000000000000000000008152600401610d8b906120b7565b60405180910390fd5b600073ffffffffffffffffffffffffffffffffffffffff168173ffffffffffffffffffffffffffffffffffffffff161415610e04576040517f08c379a0000000000000000000000000000000000000000000000000000000008152600401610dfb90612097565b60405180910390fd5b610e0d816110e1565b50565b60007f01ffc9a7000000000000000000000000000000000000000000000000000000007bffffffffffffffffffffffffffffffffffffffffffffffffffffffff1916827bffffffffffffffffffffffffffffffffffffffffffffffffffffffff1916149050919050565b600033905090565b610e8c82826105da565b610f1b57610eb18173ffffffffffffffffffffffffffffffffffffffff166014611369565b610ebf8360001c6020611369565b604051602001610ed0929190611ef1565b6040516020818303038152906040526040517f08c379a0000000000000000000000000000000000000000000000000000000008152600401610f129190611ffe565b60405180910390fd5b5050565b610f2982826105da565b610ffb57600180600084815260200190815260200160002060000160008373ffffffffffffffffffffffffffffffffffffffff1673ffffffffffffffffffffffffffffffffffffffff16815260200190815260200160002060006101000a81548160ff021916908315150217905550610fa0610e7a565b73ffffffffffffffffffffffffffffffffffffffff168173ffffffffffffffffffffffffffffffffffffffff16837f2f8788117e7eff1d82e926ec794901d17c78024a50270940304540a733656f0d60405160405180910390a45b5050565b61100982826105da565b156110dd5760006001600084815260200190815260200160002060000160008373ffffffffffffffffffffffffffffffffffffffff1673ffffffffffffffffffffffffffffffffffffffff16815260200190815260200160002060006101000a81548160ff021916908315150217905550611082610e7a565b73ffffffffffffffffffffffffffffffffffffffff168173ffffffffffffffffffffffffffffffffffffffff16837ff6391f5c32d9c69d2a47ea670b442974b53935d1edc7fd64eb21e047a839171b60405160405180910390a45b5050565b60008060009054906101000a900473ffffffffffffffffffffffffffffffffffffffff169050816000806101000a81548173ffffffffffffffffffffffffffffffffffffffff021916908373ffffffffffffffffffffffffffffffffffffffff1602179055508173ffffffffffffffffffffffffffffffffffffffff168173ffffffffffffffffffffffffffffffffffffffff167f8be0079c531659141344cd1fd0a4f28419497f9722a3daafe3b4186f6b6457e060405160405180910390a35050565b6001816000016000828254019250508190555050565b600081600001549050919050565b600260009054906101000a900473ffffffffffffffffffffffffffffffffffffffff1673ffffffffffffffffffffffffffffffffffffffff166323b872dd30836003546040518463ffffffff1660e01b815260040161122a93929190611f46565b602060405180830381600087803b15801561124457600080fd5b505af1158015611258573d6000803e3d6000fd5b505050506040513d601f19601f8201168201806040525081019061127c919061188c565b507f67fc435727c79101eeb3d6aa90277e03876ddc26d09a228ef67d959def4e81b26003543083600260009054906101000a900473ffffffffffffffffffffffffffffffffffffffff1673ffffffffffffffffffffffffffffffffffffffff166370a08231306040518263ffffffff1660e01b81526004016112fe9190611f2b565b60206040518083038186803b15801561131657600080fd5b505afa15801561132a573d6000803e3d6000fd5b505050506040513d601f19601f8201168201806040525081019061134e9190611a84565b60405161135e9493929190612134565b60405180910390a150565b60606000600283600261137c91906122f8565b61138691906122a2565b67ffffffffffffffff8111156113c5577f4e487b7100000000000000000000000000000000000000000000000000000000600052604160045260246000fd5b6040519080825280601f01601f1916602001820160405280156113f75781602001600182028036833780820191505090505b5090507f300000000000000000000000000000000000000000000000000000000000000081600081518110611455577f4e487b7100000000000000000000000000000000000000000000000000000000600052603260045260246000fd5b60200101907effffffffffffffffffffffffffffffffffffffffffffffffffffffffffffff1916908160001a9053507f7800000000000000000000000000000000000000000000000000000000000000816001815181106114df577f4e487b7100000000000000000000000000000000000000000000000000000000600052603260045260246000fd5b60200101907effffffffffffffffffffffffffffffffffffffffffffffffffffffffffffff1916908160001a9053506000600184600261151f91906122f8565b61152991906122a2565b90505b6001811115611615577f3031323334353637383961626364656600000000000000000000000000000000600f861660108110611591577f4e487b7100000000000000000000000000000000000000000000000000000000600052603260045260246000fd5b1a60f81b8282815181106115ce577f4e487b7100000000000000000000000000000000000000000000000000000000600052603260045260246000fd5b60200101907effffffffffffffffffffffffffffffffffffffffffffffffffffffffffffff1916908160001a905350600485901c94508061160e90612412565b905061152c565b5060008414611659576040517f08c379a000000000000000000000000000000000000000000000000000000000815260040161165090612057565b60405180910390fd5b8091505092915050565b82805461166f9061243c565b90600052602060002090601f01602090048101928261169157600085556116d8565b82601f106116aa57805160ff19168380011785556116d8565b828001600101855582156116d8579182015b828111156116d75782518255916020019190600101906116bc565b5b5090506116e59190611744565b5090565b60405180610100016040528060008152602001600073ffffffffffffffffffffffffffffffffffffffff1681526020016060815260200160608152602001600081526020016000815260200160608152602001606081525090565b5b8082111561175d576000816000905550600101611745565b5090565b600061177461176f84612201565b6121d0565b90508281526020810184848401111561178c57600080fd5b6117978482856123d0565b509392505050565b6000813590506117ae8161250c565b92915050565b6000815190506117c381612523565b92915050565b6000813590506117d88161253a565b92915050565b6000813590506117ed81612551565b92915050565b600082601f83011261180457600080fd5b8135611814848260208601611761565b91505092915050565b6000610100828403121561183057600080fd5b81905092915050565b60008135905061184881612568565b92915050565b60008151905061185d81612568565b92915050565b60006020828403121561187557600080fd5b60006118838482850161179f565b91505092915050565b60006020828403121561189e57600080fd5b60006118ac848285016117b4565b91505092915050565b6000602082840312156118c757600080fd5b60006118d5848285016117c9565b91505092915050565b600080604083850312156118f157600080fd5b60006118ff858286016117c9565b92505060206119108582860161179f565b9150509250929050565b60006020828403121561192c57600080fd5b600061193a848285016117de565b91505092915050565b600080600080600060a0868803121561195b57600080fd5b600086013567ffffffffffffffff81111561197557600080fd5b611981888289016117f3565b955050602086013567ffffffffffffffff81111561199e57600080fd5b6119aa888289016117f3565b94505060406119bb88828901611839565b935050606086013567ffffffffffffffff8111156119d857600080fd5b6119e4888289016117f3565b925050608086013567ffffffffffffffff811115611a0157600080fd5b611a0d888289016117f3565b9150509295509295909350565b600060208284031215611a2c57600080fd5b600082013567ffffffffffffffff811115611a4657600080fd5b611a528482850161181d565b91505092915050565b600060208284031215611a6d57600080fd5b6000611a7b84828501611839565b91505092915050565b600060208284031215611a9657600080fd5b6000611aa48482850161184e565b91505092915050565b6000611ab98383611ed3565b60208301905092915050565b611ace81612352565b82525050565b611add81612352565b82525050565b6000611aee82612241565b611af88185612264565b9350611b0383612231565b8060005b83811015611b34578151611b1b8882611aad565b9750611b2683612257565b925050600181019050611b07565b5085935050505092915050565b611b4a81612364565b82525050565b611b5981612370565b82525050565b6000611b6a8261224c565b611b748185612275565b9350611b848185602086016123df565b611b8d816124fb565b840191505092915050565b6000611ba38261224c565b611bad8185612286565b9350611bbd8185602086016123df565b611bc6816124fb565b840191505092915050565b6000611bdc8261224c565b611be68185612297565b9350611bf68185602086016123df565b80840191505092915050565b6000611c0f602083612286565b91507f537472696e67733a20686578206c656e67746820696e73756666696369656e746000830152602082019050919050565b6000611c4f601983612286565b91507f4f6e6c79206f776e65722063616e2063616c6c20746869732e000000000000006000830152602082019050919050565b6000611c8f602683612286565b91507f4f776e61626c653a206e6577206f776e657220697320746865207a65726f206160008301527f64647265737300000000000000000000000000000000000000000000000000006020830152604082019050919050565b6000611cf5602083612286565b91507f4f776e61626c653a2063616c6c6572206973206e6f7420746865206f776e65726000830152602082019050919050565b6000611d35601783612297565b91507f416363657373436f6e74726f6c3a206163636f756e74200000000000000000006000830152601782019050919050565b6000611d75601183612297565b91507f206973206d697373696e6720726f6c65200000000000000000000000000000006000830152601182019050919050565b6000611db5602f83612286565b91507f416363657373436f6e74726f6c3a2063616e206f6e6c792072656e6f756e636560008301527f20726f6c657320666f722073656c6600000000000000000000000000000000006020830152604082019050919050565b600061010083016000830151611e276000860182611ed3565b506020830151611e3a6020860182611ac5565b5060408301518482036040860152611e528282611b5f565b91505060608301518482036060860152611e6c8282611b5f565b9150506080830151611e816080860182611ed3565b5060a0830151611e9460a0860182611ed3565b5060c083015184820360c0860152611eac8282611b5f565b91505060e083015184820360e0860152611ec68282611b5f565b9150508091505092915050565b611edc816123c6565b82525050565b611eeb816123c6565b82525050565b6000611efc82611d28565b9150611f088285611bd1565b9150611f1382611d68565b9150611f1f8284611bd1565b91508190509392505050565b6000602082019050611f406000830184611ad4565b92915050565b6000606082019050611f5b6000830186611ad4565b611f686020830185611ad4565b611f756040830184611ee2565b949350505050565b6000604082019050611f926000830185611ad4565b611f9f6020830184611ee2565b9392505050565b60006020820190508181036000830152611fc08184611ae3565b905092915050565b6000602082019050611fdd6000830184611b41565b92915050565b6000602082019050611ff86000830184611b50565b92915050565b600060208201905081810360008301526120188184611b98565b905092915050565b6000604082019050818103600083015261203a8185611b98565b9050818103602083015261204e8184611b98565b90509392505050565b6000602082019050818103600083015261207081611c02565b9050919050565b6000602082019050818103600083015261209081611c42565b9050919050565b600060208201905081810360008301526120b081611c82565b9050919050565b600060208201905081810360008301526120d081611ce8565b9050919050565b600060208201905081810360008301526120f081611da8565b9050919050565b600060208201905081810360008301526121118184611e0e565b905092915050565b600060208201905061212e6000830184611ee2565b92915050565b60006080820190506121496000830187611ee2565b6121566020830186611ad4565b6121636040830185611ad4565b6121706060830184611ee2565b95945050505050565b6000808335600160200384360303811261219257600080fd5b80840192508235915067ffffffffffffffff8211156121b057600080fd5b6020830192506001820236038313156121c857600080fd5b509250929050565b6000604051905081810181811067ffffffffffffffff821117156121f7576121f66124cc565b5b8060405250919050565b600067ffffffffffffffff82111561221c5761221b6124cc565b5b601f19601f8301169050602081019050919050565b6000819050602082019050919050565b600081519050919050565b600081519050919050565b6000602082019050919050565b600082825260208201905092915050565b600082825260208201905092915050565b600082825260208201905092915050565b600081905092915050565b60006122ad826123c6565b91506122b8836123c6565b9250827fffffffffffffffffffffffffffffffffffffffffffffffffffffffffffffffff038211156122ed576122ec61246e565b5b828201905092915050565b6000612303826123c6565b915061230e836123c6565b9250817fffffffffffffffffffffffffffffffffffffffffffffffffffffffffffffffff04831182151516156123475761234661246e565b5b828202905092915050565b600061235d826123a6565b9050919050565b60008115159050919050565b6000819050919050565b60007fffffffff0000000000000000000000000000000000000000000000000000000082169050919050565b600073ffffffffffffffffffffffffffffffffffffffff82169050919050565b6000819050919050565b82818337600083830152505050565b60005b838110156123fd5780820151818401526020810190506123e2565b8381111561240c576000848401525b50505050565b600061241d826123c6565b915060008214156124315761243061246e565b5b600182039050919050565b6000600282049050600182168061245457607f821691505b602082108114156124685761246761249d565b5b50919050565b7f4e487b7100000000000000000000000000000000000000000000000000000000600052601160045260246000fd5b7f4e487b7100000000000000000000000000000000000000000000000000000000600052602260045260246000fd5b7f4e487b7100000000000000000000000000000000000000000000000000000000600052604160045260246000fd5b6000601f19601f8301169050919050565b61251581612352565b811461252057600080fd5b50565b61252c81612364565b811461253757600080fd5b50565b61254381612370565b811461254e57600080fd5b50565b61255a8161237a565b811461256557600080fd5b50565b612571816123c6565b811461257c57600080fd5b5056fea2646970667358221220a21741c2fdfeefd0f808794cb9b0c22db632e0e16e5cb2e57f78fd100f072a3864736f6c63430008000033",
  "linkReferences": {},
  "deployedLinkReferences": {}
}