{
  "_format": "hh-sol-artifact-1",
  "contractName": "HeraCoinRewarder",
  "sourceName": "contracts/HeraCoinRewarder.sol",
  "abi": [
    {
      "inputs": [
        {
          "internalType": "contract IERC20",
          "name": "_heracoin",
          "type": "address"
        }
      ],
      "stateMutability": "nonpayable",
      "type": "constructor"
    },
    {
      "anonymous": false,
      "inputs": [
        {
          "indexed": true,
          "internalType": "address",
          "name": "previousOwner",
          "type": "address"
        },
        {
          "indexed": true,
          "internalType": "address",
          "name": "newOwner",
          "type": "address"
        }
      ],
      "name": "OwnershipTransferred",
      "type": "event"
    },
    {
      "anonymous": false,
      "inputs": [
        {
          "indexed": false,
          "internalType": "uint256",
          "name": "amount",
          "type": "uint256"
        },
        {
          "indexed": false,
          "internalType": "address",
          "name": "fromAccount",
          "type": "address"
        },
        {
          "indexed": false,
          "internalType": "address",
          "name": "toAccount",
          "type": "address"
        },
        {
          "indexed": false,
          "internalType": "uint256",
          "name": "totalBalance",
          "type": "uint256"
        }
      ],
      "name": "SentRewardTokens",
      "type": "event"
    },
    {
      "inputs": [],
      "name": "getHeraCoinBalance",
      "outputs": [
        {
          "internalType": "uint256",
          "name": "",
          "type": "uint256"
        }
      ],
      "stateMutability": "view",
      "type": "function"
    },
    {
      "inputs": [],
      "name": "getRewardAmount",
      "outputs": [
        {
          "internalType": "uint256",
          "name": "",
          "type": "uint256"
        }
      ],
      "stateMutability": "view",
      "type": "function"
    },
    {
      "inputs": [],
      "name": "owner",
      "outputs": [
        {
          "internalType": "address",
          "name": "",
          "type": "address"
        }
      ],
      "stateMutability": "view",
      "type": "function"
    },
    {
      "inputs": [],
      "name": "renounceOwnership",
      "outputs": [],
      "stateMutability": "nonpayable",
      "type": "function"
    },
    {
      "inputs": [],
      "name": "reward_amount",
      "outputs": [
        {
          "internalType": "uint256",
          "name": "",
          "type": "uint256"
        }
      ],
      "stateMutability": "view",
      "type": "function"
    },
    {
      "inputs": [
        {
          "internalType": "address",
          "name": "patient",
          "type": "address"
        }
      ],
      "name": "sendRewardForEmrCreation",
      "outputs": [],
      "stateMutability": "nonpayable",
      "type": "function"
    },
    {
      "inputs": [
        {
          "internalType": "uint256",
          "name": "reward",
          "type": "uint256"
        }
      ],
      "name": "setRewardAmount",
      "outputs": [
        {
          "internalType": "bool",
          "name": "",
          "type": "bool"
        }
      ],
      "stateMutability": "nonpayable",
      "type": "function"
    },
    {
      "inputs": [
        {
          "internalType": "address",
          "name": "newOwner",
          "type": "address"
        }
      ],
      "name": "transferOwnership",
      "outputs": [],
      "stateMutability": "nonpayable",
      "type": "function"
    }
  ],
  "bytecode": "0x6080604052600a60025534801561001557600080fd5b50604051610c9e380380610c9e8339818101604052810190610037919061017b565b61005361004861009a60201b60201c565b6100a260201b60201c565b80600160006101000a81548173ffffffffffffffffffffffffffffffffffffffff021916908373ffffffffffffffffffffffffffffffffffffffff160217905550506101ff565b600033905090565b60008060009054906101000a900473ffffffffffffffffffffffffffffffffffffffff169050816000806101000a81548173ffffffffffffffffffffffffffffffffffffffff021916908373ffffffffffffffffffffffffffffffffffffffff1602179055508173ffffffffffffffffffffffffffffffffffffffff168173ffffffffffffffffffffffffffffffffffffffff167f8be0079c531659141344cd1fd0a4f28419497f9722a3daafe3b4186f6b6457e060405160405180910390a35050565b600081519050610175816101e8565b92915050565b60006020828403121561018d57600080fd5b600061019b84828501610166565b91505092915050565b60006101af826101c8565b9050919050565b60006101c1826101a4565b9050919050565b600073ffffffffffffffffffffffffffffffffffffffff82169050919050565b6101f1816101b6565b81146101fc57600080fd5b50565b610a908061020e6000396000f3fe608060405234801561001057600080fd5b50600436106100885760003560e01c80637874ede31161005b5780637874ede3146100f15780638da5cb5b1461010d578063a8a65a781461012b578063f2fde38b1461015b57610088565b806309a69f571461008d5780632381a60e146100ab578063582439ad146100c9578063715018a6146100e7575b600080fd5b610095610177565b6040516100a291906108e4565b60405180910390f35b6100b3610181565b6040516100c091906108e4565b60405180910390f35b6100d1610187565b6040516100de91906108e4565b60405180910390f35b6100ef610239565b005b61010b6004803603810190610106919061072e565b6102c1565b005b61011561045f565b6040516101229190610845565b60405180910390f35b61014560048036038101906101409190610780565b610488565b6040516101529190610889565b60405180910390f35b6101756004803603810190610170919061072e565b610516565b005b6000600254905090565b60025481565b6000600160009054906101000a900473ffffffffffffffffffffffffffffffffffffffff1673ffffffffffffffffffffffffffffffffffffffff166370a08231306040518263ffffffff1660e01b81526004016101e49190610845565b60206040518083038186803b1580156101fc57600080fd5b505afa158015610210573d6000803e3d6000fd5b505050506040513d601f19601f8201168201806040525081019061023491906107a9565b905090565b61024161060e565b73ffffffffffffffffffffffffffffffffffffffff1661025f61045f565b73ffffffffffffffffffffffffffffffffffffffff16146102b5576040517f08c379a00000000000000000000000000000000000000000000000000000000081526004016102ac906108c4565b60405180910390fd5b6102bf6000610616565b565b600160009054906101000a900473ffffffffffffffffffffffffffffffffffffffff1673ffffffffffffffffffffffffffffffffffffffff1663a9059cbb826002546040518363ffffffff1660e01b8152600401610320929190610860565b602060405180830381600087803b15801561033a57600080fd5b505af115801561034e573d6000803e3d6000fd5b505050506040513d601f19601f820116820180604052508101906103729190610757565b507f67fc435727c79101eeb3d6aa90277e03876ddc26d09a228ef67d959def4e81b26002543083600160009054906101000a900473ffffffffffffffffffffffffffffffffffffffff1673ffffffffffffffffffffffffffffffffffffffff166370a08231306040518263ffffffff1660e01b81526004016103f49190610845565b60206040518083038186803b15801561040c57600080fd5b505afa158015610420573d6000803e3d6000fd5b505050506040513d601f19601f8201168201806040525081019061044491906107a9565b60405161045494939291906108ff565b60405180910390a150565b60008060009054906101000a900473ffffffffffffffffffffffffffffffffffffffff16905090565b600061049261060e565b73ffffffffffffffffffffffffffffffffffffffff166104b061045f565b73ffffffffffffffffffffffffffffffffffffffff1614610506576040517f08c379a00000000000000000000000000000000000000000000000000000000081526004016104fd906108c4565b60405180910390fd5b8160028190555060019050919050565b61051e61060e565b73ffffffffffffffffffffffffffffffffffffffff1661053c61045f565b73ffffffffffffffffffffffffffffffffffffffff1614610592576040517f08c379a0000000000000000000000000000000000000000000000000000000008152600401610589906108c4565b60405180910390fd5b600073ffffffffffffffffffffffffffffffffffffffff168173ffffffffffffffffffffffffffffffffffffffff161415610602576040517f08c379a00000000000000000000000000000000000000000000000000000000081526004016105f9906108a4565b60405180910390fd5b61060b81610616565b50565b600033905090565b60008060009054906101000a900473ffffffffffffffffffffffffffffffffffffffff169050816000806101000a81548173ffffffffffffffffffffffffffffffffffffffff021916908373ffffffffffffffffffffffffffffffffffffffff1602179055508173ffffffffffffffffffffffffffffffffffffffff168173ffffffffffffffffffffffffffffffffffffffff167f8be0079c531659141344cd1fd0a4f28419497f9722a3daafe3b4186f6b6457e060405160405180910390a35050565b6000813590506106e981610a15565b92915050565b6000815190506106fe81610a2c565b92915050565b60008135905061071381610a43565b92915050565b60008151905061072881610a43565b92915050565b60006020828403121561074057600080fd5b600061074e848285016106da565b91505092915050565b60006020828403121561076957600080fd5b6000610777848285016106ef565b91505092915050565b60006020828403121561079257600080fd5b60006107a084828501610704565b91505092915050565b6000602082840312156107bb57600080fd5b60006107c984828501610719565b91505092915050565b6107db81610955565b82525050565b6107ea81610967565b82525050565b60006107fd602683610944565b91506108088261099d565b604082019050919050565b6000610820602083610944565b915061082b826109ec565b602082019050919050565b61083f81610993565b82525050565b600060208201905061085a60008301846107d2565b92915050565b600060408201905061087560008301856107d2565b6108826020830184610836565b9392505050565b600060208201905061089e60008301846107e1565b92915050565b600060208201905081810360008301526108bd816107f0565b9050919050565b600060208201905081810360008301526108dd81610813565b9050919050565b60006020820190506108f96000830184610836565b92915050565b60006080820190506109146000830187610836565b61092160208301866107d2565b61092e60408301856107d2565b61093b6060830184610836565b95945050505050565b600082825260208201905092915050565b600061096082610973565b9050919050565b60008115159050919050565b600073ffffffffffffffffffffffffffffffffffffffff82169050919050565b6000819050919050565b7f4f776e61626c653a206e6577206f776e657220697320746865207a65726f206160008201527f6464726573730000000000000000000000000000000000000000000000000000602082015250565b7f4f776e61626c653a2063616c6c6572206973206e6f7420746865206f776e6572600082015250565b610a1e81610955565b8114610a2957600080fd5b50565b610a3581610967565b8114610a4057600080fd5b50565b610a4c81610993565b8114610a5757600080fd5b5056fea26469706673582212202c1e5a60e03254cd31648aa97eb62af2ebea385e3f0f92928d88f2b859a5824564736f6c63430008040033",
  "linkReferences": {},
  "deployedLinkReferences": {}
}